{
  "_format": "hh-sol-artifact-1",
  "contractName": "Multicall",
  "sourceName": "contracts/base/MultiCallTo.sol",
  "abi": [
    {
      "inputs": [
        {
          "internalType": "bytes[]",
          "name": "data",
          "type": "bytes[]"
        },
        {
          "internalType": "address",
          "name": "to",
          "type": "address"
        }
      ],
      "name": "multicall",
      "outputs": [
        {
          "internalType": "bytes[]",
          "name": "results",
          "type": "bytes[]"
        }
      ],
      "stateMutability": "payable",
      "type": "function"
    }
  ],
  "bytecode": "0x60806040525a61000d610027565b80156100215760008061001e610081565b50505b506100ec565b63a8c4c5ec598160e01b8152602081600483336000905af158600e01573d6000803e3d6000fd5b3d6001141558600a015760016000f35b8051935060005b604081101561007c57600082820152602001610065565b505050565b632a2a7adb598160e01b8152600481016020815285602082015260005b868110156100b957808601518282016040015260200161009e565b506020828760640184336000905af158600e01573d6000803e3d6000fd5b3d6001141558600a015760016000f35b505050565b6105f2806100fb6000396000f3fe60806040526004361061001e5760003560e01c806377b2f5b11461002c575b6000806100296101ce565b50505b61003f61003a36600461032c565b610055565b60405161004c91906104e2565b60405180910390f35b6060826001600160401b0381118015610076576000806100736101ce565b50505b506040519080825280602002602001820160405280156100aa57816020015b60608152602001906001900390816100955790505b50905060005b838110156101c657600080846001600160a01b03168787858181106100d157fe5b90506020028101906100e3919061055c565b6040516100f19291906104d2565b6000604051808303816000865a610106610239565b5050505050509150503d806000811461013b576040513d603f01601f191681016040523d815291503d6000602084013e610140565b606091505b5091509150816101a4576044815110156101625760008061015f6101ce565b50505b6004810190602401815181019061017991906103ec565b60405162461bcd60e51b81526004016101929190610542565b604051809103906101a16101ce565b50505b808484815181106101b157fe5b602090810291909101015250506001016100b0565b509392505050565b632a2a7adb598160e01b8152600481016020815285602082015260005b868110156102065780860151828201604001526020016101eb565b506020828760640184336000905af158600e01573d6000803e3d6000fd5b3d6001141558600a015760016000f35b505050565b635b99d1c5598160e01b815261026c565b80808311156102565750815b92915050565b8080831015610256575090919050565b8360048201528460248201528560448201526080606482015287608482015260a4810160005b898110156102aa578089015182820152602001610292565b506060828a60c40184336000905af158600e01573d6000803e3d6000fd5b3d6001141558600a015760016000f35b815160408301513d6000853e8c8c82606087013350600060045af150596102ff8e3d61025c565b8d0161030b818761024a565b5b82811015610320576000815260200161030c565b50929d50505050505050565b6000806000604084860312156103495782836103466101ce565b50505b83356001600160401b03808211156103685784856103656101ce565b50505b818601915086601f8301126103845784856103816101ce565b50505b81358181111561039b5785866103986101ce565b50505b87602080830285010111156103b75785866103b46101ce565b50505b602092830195509350508401356001600160a01b03811681146103e15781826103de6101ce565b50505b809150509250925092565b6000602082840312156104065780816104036101ce565b50505b81516001600160401b03808211156104255782836104226101ce565b50505b818401915084601f83011261044157828361043e6101ce565b50505b81518181111561044d57fe5b604051601f8201601f19168101602001838111828210171561046b57fe5b60405281815283820160200187101561048b5784856104886101ce565b50505b61049c8260208301602087016105c2565b9695505050505050565b600081518084526104be8160208601602086016105c2565b601f01601f19169290920160200192915050565b6000828483379101908152919050565b6000602080830181845280855180835260408601915060408482028701019250838701855b8281101561053557878503603f190184526105238583516104a6565b94509285019290850190600101610507565b5092979650505050505050565b60006020825261055560208301846104a6565b9392505050565b6000808335601e1984360301811261057b5782836105786101ce565b50505b8301803591506001600160401b0382111561059d57828361059a6101ce565b50505b6020019150368190038213156105bb576000806105b86101ce565b50505b9250929050565b60005b838110156105dd5780820151838201526020016105c5565b838111156105ec576000848401525b5050505056",
  "linkReferences": {},
  "deployedLinkReferences": {}
}