{
  "_format": "hh-sol-artifact-1",
  "contractName": "Multicall2Optimism",
  "sourceName": "contracts/Multicall2Optimism.sol",
  "abi": [
    {
      "inputs": [
        {
          "components": [
            {
              "internalType": "address",
              "name": "target",
              "type": "address"
            },
            {
              "internalType": "bytes",
              "name": "callData",
              "type": "bytes"
            }
          ],
          "internalType": "struct Multicall2Optimism.Call[]",
          "name": "calls",
          "type": "tuple[]"
        }
      ],
      "name": "aggregate",
      "outputs": [
        {
          "internalType": "uint256",
          "name": "blockNumber",
          "type": "uint256"
        },
        {
          "internalType": "bytes[]",
          "name": "returnData",
          "type": "bytes[]"
        }
      ],
      "stateMutability": "nonpayable",
      "type": "function"
    },
    {
      "inputs": [
        {
          "components": [
            {
              "internalType": "address",
              "name": "target",
              "type": "address"
            },
            {
              "internalType": "bytes",
              "name": "callData",
              "type": "bytes"
            }
          ],
          "internalType": "struct Multicall2Optimism.Call[]",
          "name": "calls",
          "type": "tuple[]"
        }
      ],
      "name": "blockAndAggregate",
      "outputs": [
        {
          "internalType": "uint256",
          "name": "blockNumber",
          "type": "uint256"
        },
        {
          "components": [
            {
              "internalType": "bool",
              "name": "success",
              "type": "bool"
            },
            {
              "internalType": "bytes",
              "name": "returnData",
              "type": "bytes"
            }
          ],
          "internalType": "struct Multicall2Optimism.Result[]",
          "name": "returnData",
          "type": "tuple[]"
        }
      ],
      "stateMutability": "nonpayable",
      "type": "function"
    },
    {
      "inputs": [],
      "name": "getBlockNumber",
      "outputs": [
        {
          "internalType": "uint256",
          "name": "blockNumber",
          "type": "uint256"
        }
      ],
      "stateMutability": "view",
      "type": "function"
    },
    {
      "inputs": [],
      "name": "getCurrentBlockGasLimit",
      "outputs": [
        {
          "internalType": "uint256",
          "name": "gaslimit",
          "type": "uint256"
        }
      ],
      "stateMutability": "view",
      "type": "function"
    },
    {
      "inputs": [],
      "name": "getCurrentBlockTimestamp",
      "outputs": [
        {
          "internalType": "uint256",
          "name": "timestamp",
          "type": "uint256"
        }
      ],
      "stateMutability": "view",
      "type": "function"
    },
    {
      "inputs": [
        {
          "internalType": "address",
          "name": "addr",
          "type": "address"
        }
      ],
      "name": "getEthBalance",
      "outputs": [
        {
          "internalType": "uint256",
          "name": "balance",
          "type": "uint256"
        }
      ],
      "stateMutability": "view",
      "type": "function"
    },
    {
      "inputs": [
        {
          "internalType": "bool",
          "name": "requireSuccess",
          "type": "bool"
        },
        {
          "components": [
            {
              "internalType": "address",
              "name": "target",
              "type": "address"
            },
            {
              "internalType": "bytes",
              "name": "callData",
              "type": "bytes"
            }
          ],
          "internalType": "struct Multicall2Optimism.Call[]",
          "name": "calls",
          "type": "tuple[]"
        }
      ],
      "name": "tryAggregate",
      "outputs": [
        {
          "components": [
            {
              "internalType": "bool",
              "name": "success",
              "type": "bool"
            },
            {
              "internalType": "bytes",
              "name": "returnData",
              "type": "bytes"
            }
          ],
          "internalType": "struct Multicall2Optimism.Result[]",
          "name": "returnData",
          "type": "tuple[]"
        }
      ],
      "stateMutability": "nonpayable",
      "type": "function"
    },
    {
      "inputs": [
        {
          "internalType": "bool",
          "name": "requireSuccess",
          "type": "bool"
        },
        {
          "components": [
            {
              "internalType": "address",
              "name": "target",
              "type": "address"
            },
            {
              "internalType": "bytes",
              "name": "callData",
              "type": "bytes"
            }
          ],
          "internalType": "struct Multicall2Optimism.Call[]",
          "name": "calls",
          "type": "tuple[]"
        }
      ],
      "name": "tryBlockAndAggregate",
      "outputs": [
        {
          "internalType": "uint256",
          "name": "blockNumber",
          "type": "uint256"
        },
        {
          "components": [
            {
              "internalType": "bool",
              "name": "success",
              "type": "bool"
            },
            {
              "internalType": "bytes",
              "name": "returnData",
              "type": "bytes"
            }
          ],
          "internalType": "struct Multicall2Optimism.Result[]",
          "name": "returnData",
          "type": "tuple[]"
        }
      ],
      "stateMutability": "nonpayable",
      "type": "function"
    }
  ],
  "bytecode": "0x60806040525a61000d610027565b80156100215760008061001e610081565b50505b506100ec565b63a8c4c5ec598160e01b8152602081600483336000905af158600e01573d6000803e3d6000fd5b3d6001141558600a015760016000f35b8051935060005b604081101561007c57600082820152602001610065565b505050565b632a2a7adb598160e01b8152600481016020815285602082015260005b868110156100b957808601518282016040015260200161009e565b506020828760640184336000905af158600e01573d6000803e3d6000fd5b3d6001141558600a015760016000f35b505050565b610bf4806100fb6000396000f3fe60806040525a61000d6104a4565b80156100215760008061001e6104fe565b50505b50600436106100895760003560e01c80630f28c97d14610097578063252dba42146100b5578063399542e9146100d657806342cbb15c146100f75780634d2301cc146100ff57806386d516e814610112578063bce38bd71461011a578063c3077fa91461013a575b6000806100946104fe565b50505b61009f61014d565b6040516100ac9190610b13565b60405180910390f35b6100c86100c336600461091d565b61015d565b6040516100ac929190610b1c565b6100e96100e4366004610969565b6102c0565b6040516100ac929190610b84565b61009f6102e2565b61009f61010d3660046108f3565b6102ed565b61009f610307565b61012d610128366004610969565b610312565b6040516100ac9190610a8a565b6100e961014836600461091d565b61048b565b60005a610158610569565b905090565b600060605a61016a6105af565b915082516001600160401b038111801561018c576000806101896104fe565b50505b506040519080825280602002602001820160405280156101c057816020015b60608152602001906001900390816101ab5790505b50905060005b83518110156102ba576000808583815181106101de57fe5b6020026020010151516001600160a01b03168684815181106101fc57fe5b6020026020010151602001516040516102159190610a6e565b6000604051808303816000865a61022a6105f5565b5050505050509150503d806000811461025f576040513d603f01601f191681016040523d815291503d6000602084013e610264565b606091505b5091509150816102985760405162461bcd60e51b815260040161028690610ade565b604051809103906102956104fe565b50505b808484815181106102a557fe5b602090810291909101015250506001016101c6565b50915091565b600060605a6102cd6105af565b91506102d98484610312565b90509250929050565b60005a6101586105af565b6000816001600160a01b03166103016106e6565b92915050565b60005a610158610732565b606081516001600160401b0381118015610334576000806103316104fe565b50505b5060405190808252806020026020018201604052801561036e57816020015b61035b610778565b8152602001906001900390816103535790505b50905060005b82518110156104845760008084838151811061038c57fe5b6020026020010151516001600160a01b03168584815181106103aa57fe5b6020026020010151602001516040516103c39190610a6e565b6000604051808303816000865a6103d86105f5565b5050505050509150503d806000811461040d576040513d603f01601f191681016040523d815291503d6000602084013e610412565b606091505b5091509150851561044c578161044c5760405162461bcd60e51b815260040161043a90610a9d565b604051809103906104496104fe565b50505b604051806040016040528083151581526020018281525084848151811061046f57fe5b60209081029190910101525050600101610374565b5092915050565b6000606061049a6001846102c0565b9094909350915050565b63a8c4c5ec598160e01b8152602081600483336000905af158600e01573d6000803e3d6000fd5b3d6001141558600a015760016000f35b8051935060005b60408110156104f9576000828201526020016104e2565b505050565b632a2a7adb598160e01b8152600481016020815285602082015260005b8681101561053657808601518282016040015260200161051b565b506020828760640184336000905af158600e01573d6000803e3d6000fd5b3d6001141558600a015760016000f35b505050565b63bdbf8c36598160e01b8152602081600483336000905af158600e01573d6000803e3d6000fd5b3d6001141558600a015760016000f35b805160008252935060206104e2565b635a98c361598160e01b8152602081600483336000905af158600e01573d6000803e3d6000fd5b3d6001141558600a015760016000f35b805160008252935060206104e2565b635b99d1c5598160e01b8152610626565b8080831115610301575090919050565b8080831015610301575090919050565b8360048201528460248201528560448201526080606482015287608482015260a4810160005b8981101561066457808901518282015260200161064c565b506060828a60c40184336000905af158600e01573d6000803e3d6000fd5b3d6001141558600a015760016000f35b815160408301513d6000853e8c8c82606087013350600060045af150596106b98e3d610616565b8d016106c58187610606565b5b828110156106da57600081526020016106c6565b50929d50505050505050565b630a5635ae598160e01b8152836004820152602081602483336000905af158600e01573d6000803e3d6000fd5b3d6001141558600a015760016000f35b805160008252935060206104e2565b6320160f3a598160e01b8152602081600483336000905af158600e01573d6000803e3d6000fd5b3d6001141558600a015760016000f35b805160008252935060206104e2565b60405160408082019052600081526060602082015290565b80356001600160a01b03811681146107b0576000806107ad6104fe565b50505b919050565b600082601f8301126107ce5780816107cb6104fe565b50505b813560206001600160401b03808311156107e457fe5b6107f18283850201610b9d565b83815282810190868401865b868110156108e557813589016040601f198181848f03011215610827578a8b6108246104fe565b50505b81518281018181108a8211171561083a57fe5b8352610847848b01610790565b81528284013589811115610862578c8d61085f6104fe565b50505b8085019450508d603f85011261087f578b8c61087c6104fe565b50505b898401358981111561088d57fe5b61089d8b84601f84011601610b9d565b92508083528e848287010111156108bb578c8d6108b86104fe565b50505b808486018c85013782018a018c9052808a01919091528652505092850192908501906001016107fd565b509098975050505050505050565b60006020828403121561090d57808161090a6104fe565b50505b61091682610790565b9392505050565b6000602082840312156109375780816109346104fe565b50505b81356001600160401b038111156109555781826109526104fe565b50505b610961848285016107b5565b949350505050565b600080604083850312156109845780816109816104fe565b50505b8235801515811461099c5781826109996104fe565b50505b915060208301356001600160401b038111156109bf5781826109bc6104fe565b50505b6109cb858286016107b5565b9150509250929050565b600082825180855260209485019480820283018101858201855b84811015610a3557858303601f19018952815160408151151585528582015191508086860152610a2181860183610a42565b9a86019a94505050908301906001016109ef565b5090979650505050505050565b60008151808452610a5a816020860160208601610bc4565b601f01601f19169290920160200192915050565b60008251610a80818460208701610bc4565b9190910192915050565b60006020825261091660208301846109d5565b60208082526021908201527f4d756c746963616c6c32206167677265676174653a2063616c6c206661696c656040820152601960fa1b606082015260800190565b6020808252818101527f4d756c746963616c6c206167677265676174653a2063616c6c206661696c6564604082015260600190565b90815260200190565b600060408201848352602060408185015281855180845260608601915060608382028701019350828701855b82811015610b7657878603605f19018452610b64868351610a42565b95509284019290840190600101610b48565b509398975050505050505050565b60008382526040602083015261096160408301846109d5565b600060405190508181016001600160401b0381118282101715610bbc57fe5b604052919050565b60005b83811015610bdf578082015183820152602001610bc7565b83811115610bee576000848401525b5050505056",
  "linkReferences": {},
  "deployedLinkReferences": {}
}