{
  "abi": [
    {
      "inputs": [
        {
          "internalType": "address",
          "name": "_libAddressManager",
          "type": "address"
        }
      ],
      "payable": false,
      "stateMutability": "nonpayable",
      "type": "constructor"
    },
    {
      "anonymous": false,
      "inputs": [
        {
          "indexed": false,
          "internalType": "bytes32",
          "name": "msgHash",
          "type": "bytes32"
        }
      ],
      "name": "RelayedMessage",
      "type": "event"
    },
    {
      "anonymous": false,
      "inputs": [
        {
          "indexed": false,
          "internalType": "bytes",
          "name": "message",
          "type": "bytes"
        }
      ],
      "name": "SentMessage",
      "type": "event"
    },
    {
      "constant": true,
      "inputs": [],
      "name": "messageNonce",
      "outputs": [
        {
          "internalType": "uint256",
          "name": "",
          "type": "uint256"
        }
      ],
      "payable": false,
      "stateMutability": "view",
      "type": "function"
    },
    {
      "constant": false,
      "inputs": [
        {
          "internalType": "address",
          "name": "_target",
          "type": "address"
        },
        {
          "internalType": "address",
          "name": "_sender",
          "type": "address"
        },
        {
          "internalType": "bytes",
          "name": "_message",
          "type": "bytes"
        },
        {
          "internalType": "uint256",
          "name": "_messageNonce",
          "type": "uint256"
        }
      ],
      "name": "relayMessage",
      "outputs": [],
      "payable": false,
      "stateMutability": "nonpayable",
      "type": "function"
    },
    {
      "constant": true,
      "inputs": [
        {
          "internalType": "bytes32",
          "name": "",
          "type": "bytes32"
        }
      ],
      "name": "relayedMessages",
      "outputs": [
        {
          "internalType": "bool",
          "name": "",
          "type": "bool"
        }
      ],
      "payable": false,
      "stateMutability": "view",
      "type": "function"
    },
    {
      "constant": true,
      "inputs": [
        {
          "internalType": "string",
          "name": "_name",
          "type": "string"
        }
      ],
      "name": "resolve",
      "outputs": [
        {
          "internalType": "address",
          "name": "_contract",
          "type": "address"
        }
      ],
      "payable": false,
      "stateMutability": "view",
      "type": "function"
    },
    {
      "constant": false,
      "inputs": [
        {
          "internalType": "address",
          "name": "_target",
          "type": "address"
        },
        {
          "internalType": "bytes",
          "name": "_message",
          "type": "bytes"
        },
        {
          "internalType": "uint32",
          "name": "_gasLimit",
          "type": "uint32"
        }
      ],
      "name": "sendMessage",
      "outputs": [],
      "payable": false,
      "stateMutability": "nonpayable",
      "type": "function"
    },
    {
      "constant": true,
      "inputs": [
        {
          "internalType": "bytes32",
          "name": "",
          "type": "bytes32"
        }
      ],
      "name": "sentMessages",
      "outputs": [
        {
          "internalType": "bool",
          "name": "",
          "type": "bool"
        }
      ],
      "payable": false,
      "stateMutability": "view",
      "type": "function"
    },
    {
      "constant": true,
      "inputs": [
        {
          "internalType": "bytes32",
          "name": "",
          "type": "bytes32"
        }
      ],
      "name": "successfulMessages",
      "outputs": [
        {
          "internalType": "bool",
          "name": "",
          "type": "bool"
        }
      ],
      "payable": false,
      "stateMutability": "view",
      "type": "function"
    },
    {
      "constant": true,
      "inputs": [],
      "name": "xDomainMessageSender",
      "outputs": [
        {
          "internalType": "address",
          "name": "",
          "type": "address"
        }
      ],
      "payable": false,
      "stateMutability": "view",
      "type": "function"
    }
  ],
  "evm": {
    "bytecode": {
      "linkReferences": {},
      "object": "60806040523480156200001c5760008062000019620000a0565b50505b50604051620018c4380380620018c48339818101604052620000429190810190620001f3565b8080600560006101000a816200005762000110565b8173ffffffffffffffffffffffffffffffffffffffff021916908373ffffffffffffffffffffffffffffffffffffffff160217906200009562000175565b505050505062000283565b632a2a7adb598160e01b8152600481016020815285602082015260005b86811015620000dd578086015181604084010152602081019050620000bd565b506020828760640184336000905af158600e01573d6000803e3d6000fd5b3d6001141558600a015760016000f35b505050565b6303daa959598160e01b8152836004820152602081602483336000905af158600e01573d6000803e3d6000fd5b3d6001141558600a015760016000f35b8051935060005b6040811015620001705760008183015260208101905062000154565b505050565b6322bd64c0598160e01b8152836004820152846024820152600081604483336000905af158600e01573d6000803e3d6000fd5b3d6001141558600a015760016000f35b60005b6040811015620001d757600081830152602081019050620001bb565b505050565b600081519050620001ed816200025e565b92915050565b60006020828403121562000211576000806200020e620000a0565b50505b60006200022184828501620001dc565b91505092915050565b600062000237826200023e565b9050919050565b600073ffffffffffffffffffffffffffffffffffffffff82169050919050565b62000269816200022a565b811462000280576000806200027d620000a0565b50505b50565b61163180620002936000396000f3fe6080604052348015610019576000806100166109b4565b50505b50600436106100915760003560e01c806382e3702d1161006457806382e3702d14610139578063b1b1b20914610169578063cbd4ece914610199578063ecc70428146101b557610091565b806321d800ec1461009f5780633dbb202b146100cf578063461a4478146100eb5780636e296e451461011b575b60008061009c6109b4565b50505b6100b960048036036100b49190810190610fe2565b6101d3565b6040516100c691906112f7565b60405180910390f35b6100e960048036036100e49190810190610f69565b6101fa565b005b61010560048036036101009190810190611014565b6102cc565b6040516101129190611290565b60405180910390f35b6101236103ac565b6040516101309190611290565b60405180910390f35b610153600480360361014e9190810190610fe2565b6103d9565b60405161016091906112f7565b60405180910390f35b610183600480360361017e9190810190610fe2565b610400565b60405161019091906112f7565b60405180910390f35b6101b360048036036101ae9190810190610edc565b610427565b005b6101bd6106e0565b6040516101ca91906113b1565b60405180910390f35b6000602052806000526040600020600091506101ed610a22565b906101000a900460ff1681565b6060610219845a610209610a85565b856003610214610a22565b6106ed565b905061022b818363ffffffff1661078d565b600160036000828261023b610a22565b019250508190610249610ae2565b5050506001600260008380519060200120815260200190815260200160002060006101000a81610277610a22565b8160ff0219169083151502179061028c610ae2565b5050507f0ee9ffdb2334d78de97ffb066b23a352a4d35180cefb36589d663fbb1eb6f326816040516102be919061132d565b60405180910390a150505050565b600060056000906102db610a22565b906101000a900473ffffffffffffffffffffffffffffffffffffffff1673ffffffffffffffffffffffffffffffffffffffff1663bf40fac1836040518263ffffffff1660e01b8152600401610330919061134f565b6020604051808303818680610343610b47565b158015610358576000806103556109b4565b50505b505a610362610baa565b5050505050158015610381573d6000803e3d600061037e6109b4565b50505b505050506040513d601f19601f820116820180604052506103a59190810190610eaa565b9050919050565b60046000906103b9610a22565b906101000a900473ffffffffffffffffffffffffffffffffffffffff1681565b6002602052806000526040600020600091506103f3610a22565b906101000a900460ff1681565b60016020528060005260406000206000915061041a610a22565b906101000a900460ff1681565b6001151561043361085f565b15151461047e576040517f08c379a000000000000000000000000000000000000000000000000000000000815260040161046c90611391565b6040518091039061047b6109b4565b50505b606061048c858585856106ed565b905060008180519060200120905060001515600160008381526020019081526020016000206000906104bc610a22565b906101000a900460ff16151514610511576040517f08c379a00000000000000000000000000000000000000000000000000000000081526004016104ff90611371565b6040518091039061050e6109b4565b50505b84600460006101000a81610523610a22565b8173ffffffffffffffffffffffffffffffffffffffff021916908373ffffffffffffffffffffffffffffffffffffffff1602179061055f610ae2565b50505060008673ffffffffffffffffffffffffffffffffffffffff16856040516105899190611240565b6000604051808303816000865a61059e610c61565b5050505050509150503d80600081146105d3576040519150601f19603f3d011682016040523d82523d6000602084013e6105d8565b606091505b5050905060011515811515141561065c57600180600084815260200190815260200160002060006101000a8161060c610a22565b8160ff02191690831515021790610621610ae2565b5050507f4641df4a962071e12719d8c8c8e5ac7fc4d97b927346a3d7a335b1f7517e133c826040516106539190611312565b60405180910390a15b6000835a610668610a85565b5a610671610d18565b60405160200161068393929190611257565b604051602081830303815290604052805190602001209050600160008083815260200190815260200160002060006101000a816106be610a22565b8160ff021916908315150217906106d3610ae2565b5050505050505050505050565b60036106ea610a22565b81565b60608484848460405160240161070694939291906112ab565b6040516020818303038152906040527fcbd4ece9000000000000000000000000000000000000000000000000000000007bffffffffffffffffffffffffffffffffffffffffffffffffffffffff19166020820180517bffffffffffffffffffffffffffffffffffffffffffffffffffffffff83818316178352505050509050949350505050565b6107cb6040518060400160405280601781526020017f4f564d5f4c32546f4c314d6573736167655061737365720000000000000000008152506102cc565b73ffffffffffffffffffffffffffffffffffffffff1663cafa81dc836040518263ffffffff1660e01b8152600401610803919061132d565b60006040518083038160008780610818610b47565b15801561082d5760008061082a6109b4565b50505b505a610837610c61565b505050505050158015610857573d6000803e3d60006108546109b4565b50505b505050505050565b600061089f6040518060400160405280601a81526020017f4f564d5f4c3143726f7373446f6d61696e4d657373656e6765720000000000008152506102cc565b73ffffffffffffffffffffffffffffffffffffffff166108f36040518060400160405280601381526020017f4f564d5f4c314d65737361676553656e646572000000000000000000000000008152506102cc565b73ffffffffffffffffffffffffffffffffffffffff1663d20341066040518163ffffffff1660e01b815260040160206040518083038160008780610935610b47565b15801561094a576000806109476109b4565b50505b505a610954610c61565b505050505050158015610974573d6000803e3d60006109716109b4565b50505b505050506040513d601f19601f820116820180604052506109989190810190610eaa565b73ffffffffffffffffffffffffffffffffffffffff1614905090565b632a2a7adb598160e01b8152600481016020815285602082015260005b868110156109ef5780860151816040840101526020810190506109d1565b506020828760640184336000905af158600e01573d6000803e3d6000fd5b3d6001141558600a015760016000f35b505050565b6303daa959598160e01b8152836004820152602081602483336000905af158600e01573d6000803e3d6000fd5b3d6001141558600a015760016000f35b8051935060005b6040811015610a8057600081830152602081019050610a66565b505050565b6373509064598160e01b8152602081600483336000905af158600e01573d6000803e3d6000fd5b3d6001141558600a015760016000f35b8051935060005b6040811015610add57600081830152602081019050610ac3565b505050565b6322bd64c0598160e01b8152836004820152846024820152600081604483336000905af158600e01573d6000803e3d6000fd5b3d6001141558600a015760016000f35b60005b6040811015610b4257600081830152602081019050610b28565b505050565b638435035b598160e01b8152836004820152602081602483336000905af158600e01573d6000803e3d6000fd5b3d6001141558600a015760016000f35b8051935060005b6040811015610ba557600081830152602081019050610b8b565b505050565b638540661f598160e01b8152836004820152846024820152606060448201528660648201526084810160005b88811015610bf1578088015181830152602081019050610bd6565b506060828960a40184336000905af158600e01573d6000803e3d6000fd5b3d6001141558600a015760016000f35b815160408301513d6000853e8b8b82606087013350600060045af15059845b81811015610c555760008152602081019050610c3e565b50829c50505050505050565b6385979f76598160e01b8152836004820152846024820152606060448201528760648201526084810160005b89811015610ca8578089015181830152602081019050610c8d565b506060828a60a40184336000905af158600e01573d6000803e3d6000fd5b3d6001141558600a015760016000f35b815160408301513d6000853e8c8c82606087013350600060045af15059845b81811015610d0c5760008152602081019050610cf5565b50829d50505050505050565b635a98c361598160e01b8152602081600483336000905af158600e01573d6000803e3d6000fd5b3d6001141558600a015760016000f35b8051935060005b6040811015610d7057600081830152602081019050610d56565b505050565b600081359050610d84816115b1565b92915050565b600081519050610d99816115b1565b92915050565b600081359050610dae816115d1565b92915050565b600082601f830112610dce57600080610dcb6109b4565b50505b8135610de1610ddc82611402565b6113cc565b91508082526020830160208301858383011115610e0657600080610e036109b4565b50505b610e11838284611523565b50505092915050565b600082601f830112610e3457600080610e316109b4565b50505b8135610e47610e4282611437565b6113cc565b91508082526020830160208301858383011115610e6c57600080610e696109b4565b50505b610e77838284611523565b50505092915050565b600081359050610e8f816115f1565b92915050565b600081359050610ea481611611565b92915050565b600060208284031215610ec557600080610ec26109b4565b50505b6000610ed384828501610d8a565b91505092915050565b60008060008060808587031215610efb57600080610ef86109b4565b50505b6000610f0987828801610d75565b9450506020610f1a87828801610d75565b935050604085013567ffffffffffffffff811115610f4057600080610f3d6109b4565b50505b610f4c87828801610db4565b9250506060610f5d87828801610e80565b91505092959194509250565b600080600060608486031215610f8757600080610f846109b4565b50505b6000610f9586828701610d75565b935050602084013567ffffffffffffffff811115610fbb57600080610fb86109b4565b50505b610fc786828701610db4565b9250506040610fd886828701610e95565b9150509250925092565b600060208284031215610ffd57600080610ffa6109b4565b50505b600061100b84828501610d9f565b91505092915050565b60006020828403121561102f5760008061102c6109b4565b50505b600082013567ffffffffffffffff8111156110525760008061104f6109b4565b50505b61105e84828501610e1a565b91505092915050565b611078611073826114c1565b611565565b82525050565b611087816114af565b82525050565b611096816114d3565b82525050565b6110a5816114df565b82525050565b60006110b68261146c565b6110c08185611482565b93506110d0818560208601611532565b6110d981611593565b840191505092915050565b60006110ef8261146c565b6110f98185611493565b9350611109818560208601611532565b80840191505092915050565b600061112082611477565b61112a818561149e565b935061113a818560208601611532565b61114381611593565b840191505092915050565b600061115b602b8361149e565b91507f50726f7669646564206d6573736167652068617320616c72656164792062656560008301527f6e2072656365697665642e0000000000000000000000000000000000000000006020830152604082019050919050565b60006111c160278361149e565b91507f50726f7669646564206d65737361676520636f756c64206e6f7420626520766560008301527f7269666965642e000000000000000000000000000000000000000000000000006020830152604082019050919050565b61122381611509565b82525050565b61123a61123582611509565b611589565b82525050565b600061124c82846110e4565b915081905092915050565b600061126382866110e4565b915061126f8285611067565b60148201915061127f8284611229565b602082019150819050949350505050565b60006020820190506112a5600083018461107e565b92915050565b60006080820190506112c0600083018761107e565b6112cd602083018661107e565b81810360408301526112df81856110ab565b90506112ee606083018461121a565b95945050505050565b600060208201905061130c600083018461108d565b92915050565b6000602082019050611327600083018461109c565b92915050565b6000602082019050818103600083015261134781846110ab565b905092915050565b600060208201905081810360008301526113698184611115565b905092915050565b6000602082019050818103600083015261138a8161114e565b9050919050565b600060208201905081810360008301526113aa816111b4565b9050919050565b60006020820190506113c6600083018461121a565b92915050565b6000604051905081810181811067ffffffffffffffff821117156113f8576000806113f56109b4565b50505b8060405250919050565b600067ffffffffffffffff8211156114225760008061141f6109b4565b50505b601f19601f8301169050602081019050919050565b600067ffffffffffffffff821115611457576000806114546109b4565b50505b601f19601f8301169050602081019050919050565b600081519050919050565b600081519050919050565b600082825260208201905092915050565b600081905092915050565b600082825260208201905092915050565b60006114ba826114e9565b9050919050565b60006114cc826114e9565b9050919050565b60008115159050919050565b6000819050919050565b600073ffffffffffffffffffffffffffffffffffffffff82169050919050565b6000819050919050565b600063ffffffff82169050919050565b82818337600083830152505050565b60005b83811015611550578082015181840152602081019050611535565b8381111561155f576000848401525b50505050565b600061157082611577565b9050919050565b6000611582826115a4565b9050919050565b6000819050919050565b6000601f19601f8301169050919050565b60008160601b9050919050565b6115ba816114af565b81146115ce576000806115cb6109b4565b50505b50565b6115da816114df565b81146115ee576000806115eb6109b4565b50505b50565b6115fa81611509565b811461160e5760008061160b6109b4565b50505b50565b61161a81611513565b811461162e5760008061162b6109b4565b50505b5056",
      "opcodes": "PUSH1 0x80 PUSH1 0x40 MSTORE CALLVALUE DUP1 ISZERO PUSH3 0x1C JUMPI PUSH1 0x0 DUP1 PUSH3 0x19 PUSH3 0xA0 JUMP JUMPDEST POP POP JUMPDEST POP PUSH1 0x40 MLOAD PUSH3 0x18C4 CODESIZE SUB DUP1 PUSH3 0x18C4 DUP4 CODECOPY DUP2 DUP2 ADD PUSH1 0x40 MSTORE PUSH3 0x42 SWAP2 SWAP1 DUP2 ADD SWAP1 PUSH3 0x1F3 JUMP JUMPDEST DUP1 DUP1 PUSH1 0x5 PUSH1 0x0 PUSH2 0x100 EXP DUP2 PUSH3 0x57 PUSH3 0x110 JUMP JUMPDEST DUP2 PUSH20 0xFFFFFFFFFFFFFFFFFFFFFFFFFFFFFFFFFFFFFFFF MUL NOT AND SWAP1 DUP4 PUSH20 0xFFFFFFFFFFFFFFFFFFFFFFFFFFFFFFFFFFFFFFFF AND MUL OR SWAP1 PUSH3 0x95 PUSH3 0x175 JUMP JUMPDEST POP POP POP POP POP PUSH3 0x283 JUMP JUMPDEST PUSH4 0x2A2A7ADB MSIZE DUP2 PUSH1 0xE0 SHL DUP2 MSTORE PUSH1 0x4 DUP2 ADD PUSH1 0x20 DUP2 MSTORE DUP6 PUSH1 0x20 DUP3 ADD MSTORE PUSH1 0x0 JUMPDEST DUP7 DUP2 LT ISZERO PUSH3 0xDD JUMPI DUP1 DUP7 ADD MLOAD DUP2 PUSH1 0x40 DUP5 ADD ADD MSTORE PUSH1 0x20 DUP2 ADD SWAP1 POP PUSH3 0xBD JUMP JUMPDEST POP PUSH1 0x20 DUP3 DUP8 PUSH1 0x64 ADD DUP5 CALLER PUSH1 0x0 SWAP1 GAS CALL PC PUSH1 0xE ADD JUMPI RETURNDATASIZE PUSH1 0x0 DUP1 RETURNDATACOPY RETURNDATASIZE PUSH1 0x0 REVERT JUMPDEST RETURNDATASIZE PUSH1 0x1 EQ ISZERO PC PUSH1 0xA ADD JUMPI PUSH1 0x1 PUSH1 0x0 RETURN JUMPDEST POP POP POP JUMP JUMPDEST PUSH4 0x3DAA959 MSIZE DUP2 PUSH1 0xE0 SHL DUP2 MSTORE DUP4 PUSH1 0x4 DUP3 ADD MSTORE PUSH1 0x20 DUP2 PUSH1 0x24 DUP4 CALLER PUSH1 0x0 SWAP1 GAS CALL PC PUSH1 0xE ADD JUMPI RETURNDATASIZE PUSH1 0x0 DUP1 RETURNDATACOPY RETURNDATASIZE PUSH1 0x0 REVERT JUMPDEST RETURNDATASIZE PUSH1 0x1 EQ ISZERO PC PUSH1 0xA ADD JUMPI PUSH1 0x1 PUSH1 0x0 RETURN JUMPDEST DUP1 MLOAD SWAP4 POP PUSH1 0x0 JUMPDEST PUSH1 0x40 DUP2 LT ISZERO PUSH3 0x170 JUMPI PUSH1 0x0 DUP2 DUP4 ADD MSTORE PUSH1 0x20 DUP2 ADD SWAP1 POP PUSH3 0x154 JUMP JUMPDEST POP POP POP JUMP JUMPDEST PUSH4 0x22BD64C0 MSIZE DUP2 PUSH1 0xE0 SHL DUP2 MSTORE DUP4 PUSH1 0x4 DUP3 ADD MSTORE DUP5 PUSH1 0x24 DUP3 ADD MSTORE PUSH1 0x0 DUP2 PUSH1 0x44 DUP4 CALLER PUSH1 0x0 SWAP1 GAS CALL PC PUSH1 0xE ADD JUMPI RETURNDATASIZE PUSH1 0x0 DUP1 RETURNDATACOPY RETURNDATASIZE PUSH1 0x0 REVERT JUMPDEST RETURNDATASIZE PUSH1 0x1 EQ ISZERO PC PUSH1 0xA ADD JUMPI PUSH1 0x1 PUSH1 0x0 RETURN JUMPDEST PUSH1 0x0 JUMPDEST PUSH1 0x40 DUP2 LT ISZERO PUSH3 0x1D7 JUMPI PUSH1 0x0 DUP2 DUP4 ADD MSTORE PUSH1 0x20 DUP2 ADD SWAP1 POP PUSH3 0x1BB JUMP JUMPDEST POP POP POP JUMP JUMPDEST PUSH1 0x0 DUP2 MLOAD SWAP1 POP PUSH3 0x1ED DUP2 PUSH3 0x25E JUMP JUMPDEST SWAP3 SWAP2 POP POP JUMP JUMPDEST PUSH1 0x0 PUSH1 0x20 DUP3 DUP5 SUB SLT ISZERO PUSH3 0x211 JUMPI PUSH1 0x0 DUP1 PUSH3 0x20E PUSH3 0xA0 JUMP JUMPDEST POP POP JUMPDEST PUSH1 0x0 PUSH3 0x221 DUP5 DUP3 DUP6 ADD PUSH3 0x1DC JUMP JUMPDEST SWAP2 POP POP SWAP3 SWAP2 POP POP JUMP JUMPDEST PUSH1 0x0 PUSH3 0x237 DUP3 PUSH3 0x23E JUMP JUMPDEST SWAP1 POP SWAP2 SWAP1 POP JUMP JUMPDEST PUSH1 0x0 PUSH20 0xFFFFFFFFFFFFFFFFFFFFFFFFFFFFFFFFFFFFFFFF DUP3 AND SWAP1 POP SWAP2 SWAP1 POP JUMP JUMPDEST PUSH3 0x269 DUP2 PUSH3 0x22A JUMP JUMPDEST DUP2 EQ PUSH3 0x280 JUMPI PUSH1 0x0 DUP1 PUSH3 0x27D PUSH3 0xA0 JUMP JUMPDEST POP POP JUMPDEST POP JUMP JUMPDEST PUSH2 0x1631 DUP1 PUSH3 0x293 PUSH1 0x0 CODECOPY PUSH1 0x0 RETURN INVALID PUSH1 0x80 PUSH1 0x40 MSTORE CALLVALUE DUP1 ISZERO PUSH2 0x19 JUMPI PUSH1 0x0 DUP1 PUSH2 0x16 PUSH2 0x9B4 JUMP JUMPDEST POP POP JUMPDEST POP PUSH1 0x4 CALLDATASIZE LT PUSH2 0x91 JUMPI PUSH1 0x0 CALLDATALOAD PUSH1 0xE0 SHR DUP1 PUSH4 0x82E3702D GT PUSH2 0x64 JUMPI DUP1 PUSH4 0x82E3702D EQ PUSH2 0x139 JUMPI DUP1 PUSH4 0xB1B1B209 EQ PUSH2 0x169 JUMPI DUP1 PUSH4 0xCBD4ECE9 EQ PUSH2 0x199 JUMPI DUP1 PUSH4 0xECC70428 EQ PUSH2 0x1B5 JUMPI PUSH2 0x91 JUMP JUMPDEST DUP1 PUSH4 0x21D800EC EQ PUSH2 0x9F JUMPI DUP1 PUSH4 0x3DBB202B EQ PUSH2 0xCF JUMPI DUP1 PUSH4 0x461A4478 EQ PUSH2 0xEB JUMPI DUP1 PUSH4 0x6E296E45 EQ PUSH2 0x11B JUMPI JUMPDEST PUSH1 0x0 DUP1 PUSH2 0x9C PUSH2 0x9B4 JUMP JUMPDEST POP POP JUMPDEST PUSH2 0xB9 PUSH1 0x4 DUP1 CALLDATASIZE SUB PUSH2 0xB4 SWAP2 SWAP1 DUP2 ADD SWAP1 PUSH2 0xFE2 JUMP JUMPDEST PUSH2 0x1D3 JUMP JUMPDEST PUSH1 0x40 MLOAD PUSH2 0xC6 SWAP2 SWAP1 PUSH2 0x12F7 JUMP JUMPDEST PUSH1 0x40 MLOAD DUP1 SWAP2 SUB SWAP1 RETURN JUMPDEST PUSH2 0xE9 PUSH1 0x4 DUP1 CALLDATASIZE SUB PUSH2 0xE4 SWAP2 SWAP1 DUP2 ADD SWAP1 PUSH2 0xF69 JUMP JUMPDEST PUSH2 0x1FA JUMP JUMPDEST STOP JUMPDEST PUSH2 0x105 PUSH1 0x4 DUP1 CALLDATASIZE SUB PUSH2 0x100 SWAP2 SWAP1 DUP2 ADD SWAP1 PUSH2 0x1014 JUMP JUMPDEST PUSH2 0x2CC JUMP JUMPDEST PUSH1 0x40 MLOAD PUSH2 0x112 SWAP2 SWAP1 PUSH2 0x1290 JUMP JUMPDEST PUSH1 0x40 MLOAD DUP1 SWAP2 SUB SWAP1 RETURN JUMPDEST PUSH2 0x123 PUSH2 0x3AC JUMP JUMPDEST PUSH1 0x40 MLOAD PUSH2 0x130 SWAP2 SWAP1 PUSH2 0x1290 JUMP JUMPDEST PUSH1 0x40 MLOAD DUP1 SWAP2 SUB SWAP1 RETURN JUMPDEST PUSH2 0x153 PUSH1 0x4 DUP1 CALLDATASIZE SUB PUSH2 0x14E SWAP2 SWAP1 DUP2 ADD SWAP1 PUSH2 0xFE2 JUMP JUMPDEST PUSH2 0x3D9 JUMP JUMPDEST PUSH1 0x40 MLOAD PUSH2 0x160 SWAP2 SWAP1 PUSH2 0x12F7 JUMP JUMPDEST PUSH1 0x40 MLOAD DUP1 SWAP2 SUB SWAP1 RETURN JUMPDEST PUSH2 0x183 PUSH1 0x4 DUP1 CALLDATASIZE SUB PUSH2 0x17E SWAP2 SWAP1 DUP2 ADD SWAP1 PUSH2 0xFE2 JUMP JUMPDEST PUSH2 0x400 JUMP JUMPDEST PUSH1 0x40 MLOAD PUSH2 0x190 SWAP2 SWAP1 PUSH2 0x12F7 JUMP JUMPDEST PUSH1 0x40 MLOAD DUP1 SWAP2 SUB SWAP1 RETURN JUMPDEST PUSH2 0x1B3 PUSH1 0x4 DUP1 CALLDATASIZE SUB PUSH2 0x1AE SWAP2 SWAP1 DUP2 ADD SWAP1 PUSH2 0xEDC JUMP JUMPDEST PUSH2 0x427 JUMP JUMPDEST STOP JUMPDEST PUSH2 0x1BD PUSH2 0x6E0 JUMP JUMPDEST PUSH1 0x40 MLOAD PUSH2 0x1CA SWAP2 SWAP1 PUSH2 0x13B1 JUMP JUMPDEST PUSH1 0x40 MLOAD DUP1 SWAP2 SUB SWAP1 RETURN JUMPDEST PUSH1 0x0 PUSH1 0x20 MSTORE DUP1 PUSH1 0x0 MSTORE PUSH1 0x40 PUSH1 0x0 KECCAK256 PUSH1 0x0 SWAP2 POP PUSH2 0x1ED PUSH2 0xA22 JUMP JUMPDEST SWAP1 PUSH2 0x100 EXP SWAP1 DIV PUSH1 0xFF AND DUP2 JUMP JUMPDEST PUSH1 0x60 PUSH2 0x219 DUP5 GAS PUSH2 0x209 PUSH2 0xA85 JUMP JUMPDEST DUP6 PUSH1 0x3 PUSH2 0x214 PUSH2 0xA22 JUMP JUMPDEST PUSH2 0x6ED JUMP JUMPDEST SWAP1 POP PUSH2 0x22B DUP2 DUP4 PUSH4 0xFFFFFFFF AND PUSH2 0x78D JUMP JUMPDEST PUSH1 0x1 PUSH1 0x3 PUSH1 0x0 DUP3 DUP3 PUSH2 0x23B PUSH2 0xA22 JUMP JUMPDEST ADD SWAP3 POP POP DUP2 SWAP1 PUSH2 0x249 PUSH2 0xAE2 JUMP JUMPDEST POP POP POP PUSH1 0x1 PUSH1 0x2 PUSH1 0x0 DUP4 DUP1 MLOAD SWAP1 PUSH1 0x20 ADD KECCAK256 DUP2 MSTORE PUSH1 0x20 ADD SWAP1 DUP2 MSTORE PUSH1 0x20 ADD PUSH1 0x0 KECCAK256 PUSH1 0x0 PUSH2 0x100 EXP DUP2 PUSH2 0x277 PUSH2 0xA22 JUMP JUMPDEST DUP2 PUSH1 0xFF MUL NOT AND SWAP1 DUP4 ISZERO ISZERO MUL OR SWAP1 PUSH2 0x28C PUSH2 0xAE2 JUMP JUMPDEST POP POP POP PUSH32 0xEE9FFDB2334D78DE97FFB066B23A352A4D35180CEFB36589D663FBB1EB6F326 DUP2 PUSH1 0x40 MLOAD PUSH2 0x2BE SWAP2 SWAP1 PUSH2 0x132D JUMP JUMPDEST PUSH1 0x40 MLOAD DUP1 SWAP2 SUB SWAP1 LOG1 POP POP POP POP JUMP JUMPDEST PUSH1 0x0 PUSH1 0x5 PUSH1 0x0 SWAP1 PUSH2 0x2DB PUSH2 0xA22 JUMP JUMPDEST SWAP1 PUSH2 0x100 EXP SWAP1 DIV PUSH20 0xFFFFFFFFFFFFFFFFFFFFFFFFFFFFFFFFFFFFFFFF AND PUSH20 0xFFFFFFFFFFFFFFFFFFFFFFFFFFFFFFFFFFFFFFFF AND PUSH4 0xBF40FAC1 DUP4 PUSH1 0x40 MLOAD DUP3 PUSH4 0xFFFFFFFF AND PUSH1 0xE0 SHL DUP2 MSTORE PUSH1 0x4 ADD PUSH2 0x330 SWAP2 SWAP1 PUSH2 0x134F JUMP JUMPDEST PUSH1 0x20 PUSH1 0x40 MLOAD DUP1 DUP4 SUB DUP2 DUP7 DUP1 PUSH2 0x343 PUSH2 0xB47 JUMP JUMPDEST ISZERO DUP1 ISZERO PUSH2 0x358 JUMPI PUSH1 0x0 DUP1 PUSH2 0x355 PUSH2 0x9B4 JUMP JUMPDEST POP POP JUMPDEST POP GAS PUSH2 0x362 PUSH2 0xBAA JUMP JUMPDEST POP POP POP POP POP ISZERO DUP1 ISZERO PUSH2 0x381 JUMPI RETURNDATASIZE PUSH1 0x0 DUP1 RETURNDATACOPY RETURNDATASIZE PUSH1 0x0 PUSH2 0x37E PUSH2 0x9B4 JUMP JUMPDEST POP POP JUMPDEST POP POP POP POP PUSH1 0x40 MLOAD RETURNDATASIZE PUSH1 0x1F NOT PUSH1 0x1F DUP3 ADD AND DUP3 ADD DUP1 PUSH1 0x40 MSTORE POP PUSH2 0x3A5 SWAP2 SWAP1 DUP2 ADD SWAP1 PUSH2 0xEAA JUMP JUMPDEST SWAP1 POP SWAP2 SWAP1 POP JUMP JUMPDEST PUSH1 0x4 PUSH1 0x0 SWAP1 PUSH2 0x3B9 PUSH2 0xA22 JUMP JUMPDEST SWAP1 PUSH2 0x100 EXP SWAP1 DIV PUSH20 0xFFFFFFFFFFFFFFFFFFFFFFFFFFFFFFFFFFFFFFFF AND DUP2 JUMP JUMPDEST PUSH1 0x2 PUSH1 0x20 MSTORE DUP1 PUSH1 0x0 MSTORE PUSH1 0x40 PUSH1 0x0 KECCAK256 PUSH1 0x0 SWAP2 POP PUSH2 0x3F3 PUSH2 0xA22 JUMP JUMPDEST SWAP1 PUSH2 0x100 EXP SWAP1 DIV PUSH1 0xFF AND DUP2 JUMP JUMPDEST PUSH1 0x1 PUSH1 0x20 MSTORE DUP1 PUSH1 0x0 MSTORE PUSH1 0x40 PUSH1 0x0 KECCAK256 PUSH1 0x0 SWAP2 POP PUSH2 0x41A PUSH2 0xA22 JUMP JUMPDEST SWAP1 PUSH2 0x100 EXP SWAP1 DIV PUSH1 0xFF AND DUP2 JUMP JUMPDEST PUSH1 0x1 ISZERO ISZERO PUSH2 0x433 PUSH2 0x85F JUMP JUMPDEST ISZERO ISZERO EQ PUSH2 0x47E JUMPI PUSH1 0x40 MLOAD PUSH32 0x8C379A000000000000000000000000000000000000000000000000000000000 DUP2 MSTORE PUSH1 0x4 ADD PUSH2 0x46C SWAP1 PUSH2 0x1391 JUMP JUMPDEST PUSH1 0x40 MLOAD DUP1 SWAP2 SUB SWAP1 PUSH2 0x47B PUSH2 0x9B4 JUMP JUMPDEST POP POP JUMPDEST PUSH1 0x60 PUSH2 0x48C DUP6 DUP6 DUP6 DUP6 PUSH2 0x6ED JUMP JUMPDEST SWAP1 POP PUSH1 0x0 DUP2 DUP1 MLOAD SWAP1 PUSH1 0x20 ADD KECCAK256 SWAP1 POP PUSH1 0x0 ISZERO ISZERO PUSH1 0x1 PUSH1 0x0 DUP4 DUP2 MSTORE PUSH1 0x20 ADD SWAP1 DUP2 MSTORE PUSH1 0x20 ADD PUSH1 0x0 KECCAK256 PUSH1 0x0 SWAP1 PUSH2 0x4BC PUSH2 0xA22 JUMP JUMPDEST SWAP1 PUSH2 0x100 EXP SWAP1 DIV PUSH1 0xFF AND ISZERO ISZERO EQ PUSH2 0x511 JUMPI PUSH1 0x40 MLOAD PUSH32 0x8C379A000000000000000000000000000000000000000000000000000000000 DUP2 MSTORE PUSH1 0x4 ADD PUSH2 0x4FF SWAP1 PUSH2 0x1371 JUMP JUMPDEST PUSH1 0x40 MLOAD DUP1 SWAP2 SUB SWAP1 PUSH2 0x50E PUSH2 0x9B4 JUMP JUMPDEST POP POP JUMPDEST DUP5 PUSH1 0x4 PUSH1 0x0 PUSH2 0x100 EXP DUP2 PUSH2 0x523 PUSH2 0xA22 JUMP JUMPDEST DUP2 PUSH20 0xFFFFFFFFFFFFFFFFFFFFFFFFFFFFFFFFFFFFFFFF MUL NOT AND SWAP1 DUP4 PUSH20 0xFFFFFFFFFFFFFFFFFFFFFFFFFFFFFFFFFFFFFFFF AND MUL OR SWAP1 PUSH2 0x55F PUSH2 0xAE2 JUMP JUMPDEST POP POP POP PUSH1 0x0 DUP7 PUSH20 0xFFFFFFFFFFFFFFFFFFFFFFFFFFFFFFFFFFFFFFFF AND DUP6 PUSH1 0x40 MLOAD PUSH2 0x589 SWAP2 SWAP1 PUSH2 0x1240 JUMP JUMPDEST PUSH1 0x0 PUSH1 0x40 MLOAD DUP1 DUP4 SUB DUP2 PUSH1 0x0 DUP7 GAS PUSH2 0x59E PUSH2 0xC61 JUMP JUMPDEST POP POP POP POP POP POP SWAP2 POP POP RETURNDATASIZE DUP1 PUSH1 0x0 DUP2 EQ PUSH2 0x5D3 JUMPI PUSH1 0x40 MLOAD SWAP2 POP PUSH1 0x1F NOT PUSH1 0x3F RETURNDATASIZE ADD AND DUP3 ADD PUSH1 0x40 MSTORE RETURNDATASIZE DUP3 MSTORE RETURNDATASIZE PUSH1 0x0 PUSH1 0x20 DUP5 ADD RETURNDATACOPY PUSH2 0x5D8 JUMP JUMPDEST PUSH1 0x60 SWAP2 POP JUMPDEST POP POP SWAP1 POP PUSH1 0x1 ISZERO ISZERO DUP2 ISZERO ISZERO EQ ISZERO PUSH2 0x65C JUMPI PUSH1 0x1 DUP1 PUSH1 0x0 DUP5 DUP2 MSTORE PUSH1 0x20 ADD SWAP1 DUP2 MSTORE PUSH1 0x20 ADD PUSH1 0x0 KECCAK256 PUSH1 0x0 PUSH2 0x100 EXP DUP2 PUSH2 0x60C PUSH2 0xA22 JUMP JUMPDEST DUP2 PUSH1 0xFF MUL NOT AND SWAP1 DUP4 ISZERO ISZERO MUL OR SWAP1 PUSH2 0x621 PUSH2 0xAE2 JUMP JUMPDEST POP POP POP PUSH32 0x4641DF4A962071E12719D8C8C8E5AC7FC4D97B927346A3D7A335B1F7517E133C DUP3 PUSH1 0x40 MLOAD PUSH2 0x653 SWAP2 SWAP1 PUSH2 0x1312 JUMP JUMPDEST PUSH1 0x40 MLOAD DUP1 SWAP2 SUB SWAP1 LOG1 JUMPDEST PUSH1 0x0 DUP4 GAS PUSH2 0x668 PUSH2 0xA85 JUMP JUMPDEST GAS PUSH2 0x671 PUSH2 0xD18 JUMP JUMPDEST PUSH1 0x40 MLOAD PUSH1 0x20 ADD PUSH2 0x683 SWAP4 SWAP3 SWAP2 SWAP1 PUSH2 0x1257 JUMP JUMPDEST PUSH1 0x40 MLOAD PUSH1 0x20 DUP2 DUP4 SUB SUB DUP2 MSTORE SWAP1 PUSH1 0x40 MSTORE DUP1 MLOAD SWAP1 PUSH1 0x20 ADD KECCAK256 SWAP1 POP PUSH1 0x1 PUSH1 0x0 DUP1 DUP4 DUP2 MSTORE PUSH1 0x20 ADD SWAP1 DUP2 MSTORE PUSH1 0x20 ADD PUSH1 0x0 KECCAK256 PUSH1 0x0 PUSH2 0x100 EXP DUP2 PUSH2 0x6BE PUSH2 0xA22 JUMP JUMPDEST DUP2 PUSH1 0xFF MUL NOT AND SWAP1 DUP4 ISZERO ISZERO MUL OR SWAP1 PUSH2 0x6D3 PUSH2 0xAE2 JUMP JUMPDEST POP POP POP POP POP POP POP POP POP POP POP JUMP JUMPDEST PUSH1 0x3 PUSH2 0x6EA PUSH2 0xA22 JUMP JUMPDEST DUP2 JUMP JUMPDEST PUSH1 0x60 DUP5 DUP5 DUP5 DUP5 PUSH1 0x40 MLOAD PUSH1 0x24 ADD PUSH2 0x706 SWAP5 SWAP4 SWAP3 SWAP2 SWAP1 PUSH2 0x12AB JUMP JUMPDEST PUSH1 0x40 MLOAD PUSH1 0x20 DUP2 DUP4 SUB SUB DUP2 MSTORE SWAP1 PUSH1 0x40 MSTORE PUSH32 0xCBD4ECE900000000000000000000000000000000000000000000000000000000 PUSH28 0xFFFFFFFFFFFFFFFFFFFFFFFFFFFFFFFFFFFFFFFFFFFFFFFFFFFFFFFF NOT AND PUSH1 0x20 DUP3 ADD DUP1 MLOAD PUSH28 0xFFFFFFFFFFFFFFFFFFFFFFFFFFFFFFFFFFFFFFFFFFFFFFFFFFFFFFFF DUP4 DUP2 DUP4 AND OR DUP4 MSTORE POP POP POP POP SWAP1 POP SWAP5 SWAP4 POP POP POP POP JUMP JUMPDEST PUSH2 0x7CB PUSH1 0x40 MLOAD DUP1 PUSH1 0x40 ADD PUSH1 0x40 MSTORE DUP1 PUSH1 0x17 DUP2 MSTORE PUSH1 0x20 ADD PUSH32 0x4F564D5F4C32546F4C314D657373616765506173736572000000000000000000 DUP2 MSTORE POP PUSH2 0x2CC JUMP JUMPDEST PUSH20 0xFFFFFFFFFFFFFFFFFFFFFFFFFFFFFFFFFFFFFFFF AND PUSH4 0xCAFA81DC DUP4 PUSH1 0x40 MLOAD DUP3 PUSH4 0xFFFFFFFF AND PUSH1 0xE0 SHL DUP2 MSTORE PUSH1 0x4 ADD PUSH2 0x803 SWAP2 SWAP1 PUSH2 0x132D JUMP JUMPDEST PUSH1 0x0 PUSH1 0x40 MLOAD DUP1 DUP4 SUB DUP2 PUSH1 0x0 DUP8 DUP1 PUSH2 0x818 PUSH2 0xB47 JUMP JUMPDEST ISZERO DUP1 ISZERO PUSH2 0x82D JUMPI PUSH1 0x0 DUP1 PUSH2 0x82A PUSH2 0x9B4 JUMP JUMPDEST POP POP JUMPDEST POP GAS PUSH2 0x837 PUSH2 0xC61 JUMP JUMPDEST POP POP POP POP POP POP ISZERO DUP1 ISZERO PUSH2 0x857 JUMPI RETURNDATASIZE PUSH1 0x0 DUP1 RETURNDATACOPY RETURNDATASIZE PUSH1 0x0 PUSH2 0x854 PUSH2 0x9B4 JUMP JUMPDEST POP POP JUMPDEST POP POP POP POP POP POP JUMP JUMPDEST PUSH1 0x0 PUSH2 0x89F PUSH1 0x40 MLOAD DUP1 PUSH1 0x40 ADD PUSH1 0x40 MSTORE DUP1 PUSH1 0x1A DUP2 MSTORE PUSH1 0x20 ADD PUSH32 0x4F564D5F4C3143726F7373446F6D61696E4D657373656E676572000000000000 DUP2 MSTORE POP PUSH2 0x2CC JUMP JUMPDEST PUSH20 0xFFFFFFFFFFFFFFFFFFFFFFFFFFFFFFFFFFFFFFFF AND PUSH2 0x8F3 PUSH1 0x40 MLOAD DUP1 PUSH1 0x40 ADD PUSH1 0x40 MSTORE DUP1 PUSH1 0x13 DUP2 MSTORE PUSH1 0x20 ADD PUSH32 0x4F564D5F4C314D65737361676553656E64657200000000000000000000000000 DUP2 MSTORE POP PUSH2 0x2CC JUMP JUMPDEST PUSH20 0xFFFFFFFFFFFFFFFFFFFFFFFFFFFFFFFFFFFFFFFF AND PUSH4 0xD2034106 PUSH1 0x40 MLOAD DUP2 PUSH4 0xFFFFFFFF AND PUSH1 0xE0 SHL DUP2 MSTORE PUSH1 0x4 ADD PUSH1 0x20 PUSH1 0x40 MLOAD DUP1 DUP4 SUB DUP2 PUSH1 0x0 DUP8 DUP1 PUSH2 0x935 PUSH2 0xB47 JUMP JUMPDEST ISZERO DUP1 ISZERO PUSH2 0x94A JUMPI PUSH1 0x0 DUP1 PUSH2 0x947 PUSH2 0x9B4 JUMP JUMPDEST POP POP JUMPDEST POP GAS PUSH2 0x954 PUSH2 0xC61 JUMP JUMPDEST POP POP POP POP POP POP ISZERO DUP1 ISZERO PUSH2 0x974 JUMPI RETURNDATASIZE PUSH1 0x0 DUP1 RETURNDATACOPY RETURNDATASIZE PUSH1 0x0 PUSH2 0x971 PUSH2 0x9B4 JUMP JUMPDEST POP POP JUMPDEST POP POP POP POP PUSH1 0x40 MLOAD RETURNDATASIZE PUSH1 0x1F NOT PUSH1 0x1F DUP3 ADD AND DUP3 ADD DUP1 PUSH1 0x40 MSTORE POP PUSH2 0x998 SWAP2 SWAP1 DUP2 ADD SWAP1 PUSH2 0xEAA JUMP JUMPDEST PUSH20 0xFFFFFFFFFFFFFFFFFFFFFFFFFFFFFFFFFFFFFFFF AND EQ SWAP1 POP SWAP1 JUMP JUMPDEST PUSH4 0x2A2A7ADB MSIZE DUP2 PUSH1 0xE0 SHL DUP2 MSTORE PUSH1 0x4 DUP2 ADD PUSH1 0x20 DUP2 MSTORE DUP6 PUSH1 0x20 DUP3 ADD MSTORE PUSH1 0x0 JUMPDEST DUP7 DUP2 LT ISZERO PUSH2 0x9EF JUMPI DUP1 DUP7 ADD MLOAD DUP2 PUSH1 0x40 DUP5 ADD ADD MSTORE PUSH1 0x20 DUP2 ADD SWAP1 POP PUSH2 0x9D1 JUMP JUMPDEST POP PUSH1 0x20 DUP3 DUP8 PUSH1 0x64 ADD DUP5 CALLER PUSH1 0x0 SWAP1 GAS CALL PC PUSH1 0xE ADD JUMPI RETURNDATASIZE PUSH1 0x0 DUP1 RETURNDATACOPY RETURNDATASIZE PUSH1 0x0 REVERT JUMPDEST RETURNDATASIZE PUSH1 0x1 EQ ISZERO PC PUSH1 0xA ADD JUMPI PUSH1 0x1 PUSH1 0x0 RETURN JUMPDEST POP POP POP JUMP JUMPDEST PUSH4 0x3DAA959 MSIZE DUP2 PUSH1 0xE0 SHL DUP2 MSTORE DUP4 PUSH1 0x4 DUP3 ADD MSTORE PUSH1 0x20 DUP2 PUSH1 0x24 DUP4 CALLER PUSH1 0x0 SWAP1 GAS CALL PC PUSH1 0xE ADD JUMPI RETURNDATASIZE PUSH1 0x0 DUP1 RETURNDATACOPY RETURNDATASIZE PUSH1 0x0 REVERT JUMPDEST RETURNDATASIZE PUSH1 0x1 EQ ISZERO PC PUSH1 0xA ADD JUMPI PUSH1 0x1 PUSH1 0x0 RETURN JUMPDEST DUP1 MLOAD SWAP4 POP PUSH1 0x0 JUMPDEST PUSH1 0x40 DUP2 LT ISZERO PUSH2 0xA80 JUMPI PUSH1 0x0 DUP2 DUP4 ADD MSTORE PUSH1 0x20 DUP2 ADD SWAP1 POP PUSH2 0xA66 JUMP JUMPDEST POP POP POP JUMP JUMPDEST PUSH4 0x73509064 MSIZE DUP2 PUSH1 0xE0 SHL DUP2 MSTORE PUSH1 0x20 DUP2 PUSH1 0x4 DUP4 CALLER PUSH1 0x0 SWAP1 GAS CALL PC PUSH1 0xE ADD JUMPI RETURNDATASIZE PUSH1 0x0 DUP1 RETURNDATACOPY RETURNDATASIZE PUSH1 0x0 REVERT JUMPDEST RETURNDATASIZE PUSH1 0x1 EQ ISZERO PC PUSH1 0xA ADD JUMPI PUSH1 0x1 PUSH1 0x0 RETURN JUMPDEST DUP1 MLOAD SWAP4 POP PUSH1 0x0 JUMPDEST PUSH1 0x40 DUP2 LT ISZERO PUSH2 0xADD JUMPI PUSH1 0x0 DUP2 DUP4 ADD MSTORE PUSH1 0x20 DUP2 ADD SWAP1 POP PUSH2 0xAC3 JUMP JUMPDEST POP POP POP JUMP JUMPDEST PUSH4 0x22BD64C0 MSIZE DUP2 PUSH1 0xE0 SHL DUP2 MSTORE DUP4 PUSH1 0x4 DUP3 ADD MSTORE DUP5 PUSH1 0x24 DUP3 ADD MSTORE PUSH1 0x0 DUP2 PUSH1 0x44 DUP4 CALLER PUSH1 0x0 SWAP1 GAS CALL PC PUSH1 0xE ADD JUMPI RETURNDATASIZE PUSH1 0x0 DUP1 RETURNDATACOPY RETURNDATASIZE PUSH1 0x0 REVERT JUMPDEST RETURNDATASIZE PUSH1 0x1 EQ ISZERO PC PUSH1 0xA ADD JUMPI PUSH1 0x1 PUSH1 0x0 RETURN JUMPDEST PUSH1 0x0 JUMPDEST PUSH1 0x40 DUP2 LT ISZERO PUSH2 0xB42 JUMPI PUSH1 0x0 DUP2 DUP4 ADD MSTORE PUSH1 0x20 DUP2 ADD SWAP1 POP PUSH2 0xB28 JUMP JUMPDEST POP POP POP JUMP JUMPDEST PUSH4 0x8435035B MSIZE DUP2 PUSH1 0xE0 SHL DUP2 MSTORE DUP4 PUSH1 0x4 DUP3 ADD MSTORE PUSH1 0x20 DUP2 PUSH1 0x24 DUP4 CALLER PUSH1 0x0 SWAP1 GAS CALL PC PUSH1 0xE ADD JUMPI RETURNDATASIZE PUSH1 0x0 DUP1 RETURNDATACOPY RETURNDATASIZE PUSH1 0x0 REVERT JUMPDEST RETURNDATASIZE PUSH1 0x1 EQ ISZERO PC PUSH1 0xA ADD JUMPI PUSH1 0x1 PUSH1 0x0 RETURN JUMPDEST DUP1 MLOAD SWAP4 POP PUSH1 0x0 JUMPDEST PUSH1 0x40 DUP2 LT ISZERO PUSH2 0xBA5 JUMPI PUSH1 0x0 DUP2 DUP4 ADD MSTORE PUSH1 0x20 DUP2 ADD SWAP1 POP PUSH2 0xB8B JUMP JUMPDEST POP POP POP JUMP JUMPDEST PUSH4 0x8540661F MSIZE DUP2 PUSH1 0xE0 SHL DUP2 MSTORE DUP4 PUSH1 0x4 DUP3 ADD MSTORE DUP5 PUSH1 0x24 DUP3 ADD MSTORE PUSH1 0x60 PUSH1 0x44 DUP3 ADD MSTORE DUP7 PUSH1 0x64 DUP3 ADD MSTORE PUSH1 0x84 DUP2 ADD PUSH1 0x0 JUMPDEST DUP9 DUP2 LT ISZERO PUSH2 0xBF1 JUMPI DUP1 DUP9 ADD MLOAD DUP2 DUP4 ADD MSTORE PUSH1 0x20 DUP2 ADD SWAP1 POP PUSH2 0xBD6 JUMP JUMPDEST POP PUSH1 0x60 DUP3 DUP10 PUSH1 0xA4 ADD DUP5 CALLER PUSH1 0x0 SWAP1 GAS CALL PC PUSH1 0xE ADD JUMPI RETURNDATASIZE PUSH1 0x0 DUP1 RETURNDATACOPY RETURNDATASIZE PUSH1 0x0 REVERT JUMPDEST RETURNDATASIZE PUSH1 0x1 EQ ISZERO PC PUSH1 0xA ADD JUMPI PUSH1 0x1 PUSH1 0x0 RETURN JUMPDEST DUP2 MLOAD PUSH1 0x40 DUP4 ADD MLOAD RETURNDATASIZE PUSH1 0x0 DUP6 RETURNDATACOPY DUP12 DUP12 DUP3 PUSH1 0x60 DUP8 ADD CALLER POP PUSH1 0x0 PUSH1 0x4 GAS CALL POP MSIZE DUP5 JUMPDEST DUP2 DUP2 LT ISZERO PUSH2 0xC55 JUMPI PUSH1 0x0 DUP2 MSTORE PUSH1 0x20 DUP2 ADD SWAP1 POP PUSH2 0xC3E JUMP JUMPDEST POP DUP3 SWAP13 POP POP POP POP POP POP POP JUMP JUMPDEST PUSH4 0x85979F76 MSIZE DUP2 PUSH1 0xE0 SHL DUP2 MSTORE DUP4 PUSH1 0x4 DUP3 ADD MSTORE DUP5 PUSH1 0x24 DUP3 ADD MSTORE PUSH1 0x60 PUSH1 0x44 DUP3 ADD MSTORE DUP8 PUSH1 0x64 DUP3 ADD MSTORE PUSH1 0x84 DUP2 ADD PUSH1 0x0 JUMPDEST DUP10 DUP2 LT ISZERO PUSH2 0xCA8 JUMPI DUP1 DUP10 ADD MLOAD DUP2 DUP4 ADD MSTORE PUSH1 0x20 DUP2 ADD SWAP1 POP PUSH2 0xC8D JUMP JUMPDEST POP PUSH1 0x60 DUP3 DUP11 PUSH1 0xA4 ADD DUP5 CALLER PUSH1 0x0 SWAP1 GAS CALL PC PUSH1 0xE ADD JUMPI RETURNDATASIZE PUSH1 0x0 DUP1 RETURNDATACOPY RETURNDATASIZE PUSH1 0x0 REVERT JUMPDEST RETURNDATASIZE PUSH1 0x1 EQ ISZERO PC PUSH1 0xA ADD JUMPI PUSH1 0x1 PUSH1 0x0 RETURN JUMPDEST DUP2 MLOAD PUSH1 0x40 DUP4 ADD MLOAD RETURNDATASIZE PUSH1 0x0 DUP6 RETURNDATACOPY DUP13 DUP13 DUP3 PUSH1 0x60 DUP8 ADD CALLER POP PUSH1 0x0 PUSH1 0x4 GAS CALL POP MSIZE DUP5 JUMPDEST DUP2 DUP2 LT ISZERO PUSH2 0xD0C JUMPI PUSH1 0x0 DUP2 MSTORE PUSH1 0x20 DUP2 ADD SWAP1 POP PUSH2 0xCF5 JUMP JUMPDEST POP DUP3 SWAP14 POP POP POP POP POP POP POP JUMP JUMPDEST PUSH4 0x5A98C361 MSIZE DUP2 PUSH1 0xE0 SHL DUP2 MSTORE PUSH1 0x20 DUP2 PUSH1 0x4 DUP4 CALLER PUSH1 0x0 SWAP1 GAS CALL PC PUSH1 0xE ADD JUMPI RETURNDATASIZE PUSH1 0x0 DUP1 RETURNDATACOPY RETURNDATASIZE PUSH1 0x0 REVERT JUMPDEST RETURNDATASIZE PUSH1 0x1 EQ ISZERO PC PUSH1 0xA ADD JUMPI PUSH1 0x1 PUSH1 0x0 RETURN JUMPDEST DUP1 MLOAD SWAP4 POP PUSH1 0x0 JUMPDEST PUSH1 0x40 DUP2 LT ISZERO PUSH2 0xD70 JUMPI PUSH1 0x0 DUP2 DUP4 ADD MSTORE PUSH1 0x20 DUP2 ADD SWAP1 POP PUSH2 0xD56 JUMP JUMPDEST POP POP POP JUMP JUMPDEST PUSH1 0x0 DUP2 CALLDATALOAD SWAP1 POP PUSH2 0xD84 DUP2 PUSH2 0x15B1 JUMP JUMPDEST SWAP3 SWAP2 POP POP JUMP JUMPDEST PUSH1 0x0 DUP2 MLOAD SWAP1 POP PUSH2 0xD99 DUP2 PUSH2 0x15B1 JUMP JUMPDEST SWAP3 SWAP2 POP POP JUMP JUMPDEST PUSH1 0x0 DUP2 CALLDATALOAD SWAP1 POP PUSH2 0xDAE DUP2 PUSH2 0x15D1 JUMP JUMPDEST SWAP3 SWAP2 POP POP JUMP JUMPDEST PUSH1 0x0 DUP3 PUSH1 0x1F DUP4 ADD SLT PUSH2 0xDCE JUMPI PUSH1 0x0 DUP1 PUSH2 0xDCB PUSH2 0x9B4 JUMP JUMPDEST POP POP JUMPDEST DUP2 CALLDATALOAD PUSH2 0xDE1 PUSH2 0xDDC DUP3 PUSH2 0x1402 JUMP JUMPDEST PUSH2 0x13CC JUMP JUMPDEST SWAP2 POP DUP1 DUP3 MSTORE PUSH1 0x20 DUP4 ADD PUSH1 0x20 DUP4 ADD DUP6 DUP4 DUP4 ADD GT ISZERO PUSH2 0xE06 JUMPI PUSH1 0x0 DUP1 PUSH2 0xE03 PUSH2 0x9B4 JUMP JUMPDEST POP POP JUMPDEST PUSH2 0xE11 DUP4 DUP3 DUP5 PUSH2 0x1523 JUMP JUMPDEST POP POP POP SWAP3 SWAP2 POP POP JUMP JUMPDEST PUSH1 0x0 DUP3 PUSH1 0x1F DUP4 ADD SLT PUSH2 0xE34 JUMPI PUSH1 0x0 DUP1 PUSH2 0xE31 PUSH2 0x9B4 JUMP JUMPDEST POP POP JUMPDEST DUP2 CALLDATALOAD PUSH2 0xE47 PUSH2 0xE42 DUP3 PUSH2 0x1437 JUMP JUMPDEST PUSH2 0x13CC JUMP JUMPDEST SWAP2 POP DUP1 DUP3 MSTORE PUSH1 0x20 DUP4 ADD PUSH1 0x20 DUP4 ADD DUP6 DUP4 DUP4 ADD GT ISZERO PUSH2 0xE6C JUMPI PUSH1 0x0 DUP1 PUSH2 0xE69 PUSH2 0x9B4 JUMP JUMPDEST POP POP JUMPDEST PUSH2 0xE77 DUP4 DUP3 DUP5 PUSH2 0x1523 JUMP JUMPDEST POP POP POP SWAP3 SWAP2 POP POP JUMP JUMPDEST PUSH1 0x0 DUP2 CALLDATALOAD SWAP1 POP PUSH2 0xE8F DUP2 PUSH2 0x15F1 JUMP JUMPDEST SWAP3 SWAP2 POP POP JUMP JUMPDEST PUSH1 0x0 DUP2 CALLDATALOAD SWAP1 POP PUSH2 0xEA4 DUP2 PUSH2 0x1611 JUMP JUMPDEST SWAP3 SWAP2 POP POP JUMP JUMPDEST PUSH1 0x0 PUSH1 0x20 DUP3 DUP5 SUB SLT ISZERO PUSH2 0xEC5 JUMPI PUSH1 0x0 DUP1 PUSH2 0xEC2 PUSH2 0x9B4 JUMP JUMPDEST POP POP JUMPDEST PUSH1 0x0 PUSH2 0xED3 DUP5 DUP3 DUP6 ADD PUSH2 0xD8A JUMP JUMPDEST SWAP2 POP POP SWAP3 SWAP2 POP POP JUMP JUMPDEST PUSH1 0x0 DUP1 PUSH1 0x0 DUP1 PUSH1 0x80 DUP6 DUP8 SUB SLT ISZERO PUSH2 0xEFB JUMPI PUSH1 0x0 DUP1 PUSH2 0xEF8 PUSH2 0x9B4 JUMP JUMPDEST POP POP JUMPDEST PUSH1 0x0 PUSH2 0xF09 DUP8 DUP3 DUP9 ADD PUSH2 0xD75 JUMP JUMPDEST SWAP5 POP POP PUSH1 0x20 PUSH2 0xF1A DUP8 DUP3 DUP9 ADD PUSH2 0xD75 JUMP JUMPDEST SWAP4 POP POP PUSH1 0x40 DUP6 ADD CALLDATALOAD PUSH8 0xFFFFFFFFFFFFFFFF DUP2 GT ISZERO PUSH2 0xF40 JUMPI PUSH1 0x0 DUP1 PUSH2 0xF3D PUSH2 0x9B4 JUMP JUMPDEST POP POP JUMPDEST PUSH2 0xF4C DUP8 DUP3 DUP9 ADD PUSH2 0xDB4 JUMP JUMPDEST SWAP3 POP POP PUSH1 0x60 PUSH2 0xF5D DUP8 DUP3 DUP9 ADD PUSH2 0xE80 JUMP JUMPDEST SWAP2 POP POP SWAP3 SWAP6 SWAP2 SWAP5 POP SWAP3 POP JUMP JUMPDEST PUSH1 0x0 DUP1 PUSH1 0x0 PUSH1 0x60 DUP5 DUP7 SUB SLT ISZERO PUSH2 0xF87 JUMPI PUSH1 0x0 DUP1 PUSH2 0xF84 PUSH2 0x9B4 JUMP JUMPDEST POP POP JUMPDEST PUSH1 0x0 PUSH2 0xF95 DUP7 DUP3 DUP8 ADD PUSH2 0xD75 JUMP JUMPDEST SWAP4 POP POP PUSH1 0x20 DUP5 ADD CALLDATALOAD PUSH8 0xFFFFFFFFFFFFFFFF DUP2 GT ISZERO PUSH2 0xFBB JUMPI PUSH1 0x0 DUP1 PUSH2 0xFB8 PUSH2 0x9B4 JUMP JUMPDEST POP POP JUMPDEST PUSH2 0xFC7 DUP7 DUP3 DUP8 ADD PUSH2 0xDB4 JUMP JUMPDEST SWAP3 POP POP PUSH1 0x40 PUSH2 0xFD8 DUP7 DUP3 DUP8 ADD PUSH2 0xE95 JUMP JUMPDEST SWAP2 POP POP SWAP3 POP SWAP3 POP SWAP3 JUMP JUMPDEST PUSH1 0x0 PUSH1 0x20 DUP3 DUP5 SUB SLT ISZERO PUSH2 0xFFD JUMPI PUSH1 0x0 DUP1 PUSH2 0xFFA PUSH2 0x9B4 JUMP JUMPDEST POP POP JUMPDEST PUSH1 0x0 PUSH2 0x100B DUP5 DUP3 DUP6 ADD PUSH2 0xD9F JUMP JUMPDEST SWAP2 POP POP SWAP3 SWAP2 POP POP JUMP JUMPDEST PUSH1 0x0 PUSH1 0x20 DUP3 DUP5 SUB SLT ISZERO PUSH2 0x102F JUMPI PUSH1 0x0 DUP1 PUSH2 0x102C PUSH2 0x9B4 JUMP JUMPDEST POP POP JUMPDEST PUSH1 0x0 DUP3 ADD CALLDATALOAD PUSH8 0xFFFFFFFFFFFFFFFF DUP2 GT ISZERO PUSH2 0x1052 JUMPI PUSH1 0x0 DUP1 PUSH2 0x104F PUSH2 0x9B4 JUMP JUMPDEST POP POP JUMPDEST PUSH2 0x105E DUP5 DUP3 DUP6 ADD PUSH2 0xE1A JUMP JUMPDEST SWAP2 POP POP SWAP3 SWAP2 POP POP JUMP JUMPDEST PUSH2 0x1078 PUSH2 0x1073 DUP3 PUSH2 0x14C1 JUMP JUMPDEST PUSH2 0x1565 JUMP JUMPDEST DUP3 MSTORE POP POP JUMP JUMPDEST PUSH2 0x1087 DUP2 PUSH2 0x14AF JUMP JUMPDEST DUP3 MSTORE POP POP JUMP JUMPDEST PUSH2 0x1096 DUP2 PUSH2 0x14D3 JUMP JUMPDEST DUP3 MSTORE POP POP JUMP JUMPDEST PUSH2 0x10A5 DUP2 PUSH2 0x14DF JUMP JUMPDEST DUP3 MSTORE POP POP JUMP JUMPDEST PUSH1 0x0 PUSH2 0x10B6 DUP3 PUSH2 0x146C JUMP JUMPDEST PUSH2 0x10C0 DUP2 DUP6 PUSH2 0x1482 JUMP JUMPDEST SWAP4 POP PUSH2 0x10D0 DUP2 DUP6 PUSH1 0x20 DUP7 ADD PUSH2 0x1532 JUMP JUMPDEST PUSH2 0x10D9 DUP2 PUSH2 0x1593 JUMP JUMPDEST DUP5 ADD SWAP2 POP POP SWAP3 SWAP2 POP POP JUMP JUMPDEST PUSH1 0x0 PUSH2 0x10EF DUP3 PUSH2 0x146C JUMP JUMPDEST PUSH2 0x10F9 DUP2 DUP6 PUSH2 0x1493 JUMP JUMPDEST SWAP4 POP PUSH2 0x1109 DUP2 DUP6 PUSH1 0x20 DUP7 ADD PUSH2 0x1532 JUMP JUMPDEST DUP1 DUP5 ADD SWAP2 POP POP SWAP3 SWAP2 POP POP JUMP JUMPDEST PUSH1 0x0 PUSH2 0x1120 DUP3 PUSH2 0x1477 JUMP JUMPDEST PUSH2 0x112A DUP2 DUP6 PUSH2 0x149E JUMP JUMPDEST SWAP4 POP PUSH2 0x113A DUP2 DUP6 PUSH1 0x20 DUP7 ADD PUSH2 0x1532 JUMP JUMPDEST PUSH2 0x1143 DUP2 PUSH2 0x1593 JUMP JUMPDEST DUP5 ADD SWAP2 POP POP SWAP3 SWAP2 POP POP JUMP JUMPDEST PUSH1 0x0 PUSH2 0x115B PUSH1 0x2B DUP4 PUSH2 0x149E JUMP JUMPDEST SWAP2 POP PUSH32 0x50726F7669646564206D6573736167652068617320616C726561647920626565 PUSH1 0x0 DUP4 ADD MSTORE PUSH32 0x6E2072656365697665642E000000000000000000000000000000000000000000 PUSH1 0x20 DUP4 ADD MSTORE PUSH1 0x40 DUP3 ADD SWAP1 POP SWAP2 SWAP1 POP JUMP JUMPDEST PUSH1 0x0 PUSH2 0x11C1 PUSH1 0x27 DUP4 PUSH2 0x149E JUMP JUMPDEST SWAP2 POP PUSH32 0x50726F7669646564206D65737361676520636F756C64206E6F74206265207665 PUSH1 0x0 DUP4 ADD MSTORE PUSH32 0x7269666965642E00000000000000000000000000000000000000000000000000 PUSH1 0x20 DUP4 ADD MSTORE PUSH1 0x40 DUP3 ADD SWAP1 POP SWAP2 SWAP1 POP JUMP JUMPDEST PUSH2 0x1223 DUP2 PUSH2 0x1509 JUMP JUMPDEST DUP3 MSTORE POP POP JUMP JUMPDEST PUSH2 0x123A PUSH2 0x1235 DUP3 PUSH2 0x1509 JUMP JUMPDEST PUSH2 0x1589 JUMP JUMPDEST DUP3 MSTORE POP POP JUMP JUMPDEST PUSH1 0x0 PUSH2 0x124C DUP3 DUP5 PUSH2 0x10E4 JUMP JUMPDEST SWAP2 POP DUP2 SWAP1 POP SWAP3 SWAP2 POP POP JUMP JUMPDEST PUSH1 0x0 PUSH2 0x1263 DUP3 DUP7 PUSH2 0x10E4 JUMP JUMPDEST SWAP2 POP PUSH2 0x126F DUP3 DUP6 PUSH2 0x1067 JUMP JUMPDEST PUSH1 0x14 DUP3 ADD SWAP2 POP PUSH2 0x127F DUP3 DUP5 PUSH2 0x1229 JUMP JUMPDEST PUSH1 0x20 DUP3 ADD SWAP2 POP DUP2 SWAP1 POP SWAP5 SWAP4 POP POP POP POP JUMP JUMPDEST PUSH1 0x0 PUSH1 0x20 DUP3 ADD SWAP1 POP PUSH2 0x12A5 PUSH1 0x0 DUP4 ADD DUP5 PUSH2 0x107E JUMP JUMPDEST SWAP3 SWAP2 POP POP JUMP JUMPDEST PUSH1 0x0 PUSH1 0x80 DUP3 ADD SWAP1 POP PUSH2 0x12C0 PUSH1 0x0 DUP4 ADD DUP8 PUSH2 0x107E JUMP JUMPDEST PUSH2 0x12CD PUSH1 0x20 DUP4 ADD DUP7 PUSH2 0x107E JUMP JUMPDEST DUP2 DUP2 SUB PUSH1 0x40 DUP4 ADD MSTORE PUSH2 0x12DF DUP2 DUP6 PUSH2 0x10AB JUMP JUMPDEST SWAP1 POP PUSH2 0x12EE PUSH1 0x60 DUP4 ADD DUP5 PUSH2 0x121A JUMP JUMPDEST SWAP6 SWAP5 POP POP POP POP POP JUMP JUMPDEST PUSH1 0x0 PUSH1 0x20 DUP3 ADD SWAP1 POP PUSH2 0x130C PUSH1 0x0 DUP4 ADD DUP5 PUSH2 0x108D JUMP JUMPDEST SWAP3 SWAP2 POP POP JUMP JUMPDEST PUSH1 0x0 PUSH1 0x20 DUP3 ADD SWAP1 POP PUSH2 0x1327 PUSH1 0x0 DUP4 ADD DUP5 PUSH2 0x109C JUMP JUMPDEST SWAP3 SWAP2 POP POP JUMP JUMPDEST PUSH1 0x0 PUSH1 0x20 DUP3 ADD SWAP1 POP DUP2 DUP2 SUB PUSH1 0x0 DUP4 ADD MSTORE PUSH2 0x1347 DUP2 DUP5 PUSH2 0x10AB JUMP JUMPDEST SWAP1 POP SWAP3 SWAP2 POP POP JUMP JUMPDEST PUSH1 0x0 PUSH1 0x20 DUP3 ADD SWAP1 POP DUP2 DUP2 SUB PUSH1 0x0 DUP4 ADD MSTORE PUSH2 0x1369 DUP2 DUP5 PUSH2 0x1115 JUMP JUMPDEST SWAP1 POP SWAP3 SWAP2 POP POP JUMP JUMPDEST PUSH1 0x0 PUSH1 0x20 DUP3 ADD SWAP1 POP DUP2 DUP2 SUB PUSH1 0x0 DUP4 ADD MSTORE PUSH2 0x138A DUP2 PUSH2 0x114E JUMP JUMPDEST SWAP1 POP SWAP2 SWAP1 POP JUMP JUMPDEST PUSH1 0x0 PUSH1 0x20 DUP3 ADD SWAP1 POP DUP2 DUP2 SUB PUSH1 0x0 DUP4 ADD MSTORE PUSH2 0x13AA DUP2 PUSH2 0x11B4 JUMP JUMPDEST SWAP1 POP SWAP2 SWAP1 POP JUMP JUMPDEST PUSH1 0x0 PUSH1 0x20 DUP3 ADD SWAP1 POP PUSH2 0x13C6 PUSH1 0x0 DUP4 ADD DUP5 PUSH2 0x121A JUMP JUMPDEST SWAP3 SWAP2 POP POP JUMP JUMPDEST PUSH1 0x0 PUSH1 0x40 MLOAD SWAP1 POP DUP2 DUP2 ADD DUP2 DUP2 LT PUSH8 0xFFFFFFFFFFFFFFFF DUP3 GT OR ISZERO PUSH2 0x13F8 JUMPI PUSH1 0x0 DUP1 PUSH2 0x13F5 PUSH2 0x9B4 JUMP JUMPDEST POP POP JUMPDEST DUP1 PUSH1 0x40 MSTORE POP SWAP2 SWAP1 POP JUMP JUMPDEST PUSH1 0x0 PUSH8 0xFFFFFFFFFFFFFFFF DUP3 GT ISZERO PUSH2 0x1422 JUMPI PUSH1 0x0 DUP1 PUSH2 0x141F PUSH2 0x9B4 JUMP JUMPDEST POP POP JUMPDEST PUSH1 0x1F NOT PUSH1 0x1F DUP4 ADD AND SWAP1 POP PUSH1 0x20 DUP2 ADD SWAP1 POP SWAP2 SWAP1 POP JUMP JUMPDEST PUSH1 0x0 PUSH8 0xFFFFFFFFFFFFFFFF DUP3 GT ISZERO PUSH2 0x1457 JUMPI PUSH1 0x0 DUP1 PUSH2 0x1454 PUSH2 0x9B4 JUMP JUMPDEST POP POP JUMPDEST PUSH1 0x1F NOT PUSH1 0x1F DUP4 ADD AND SWAP1 POP PUSH1 0x20 DUP2 ADD SWAP1 POP SWAP2 SWAP1 POP JUMP JUMPDEST PUSH1 0x0 DUP2 MLOAD SWAP1 POP SWAP2 SWAP1 POP JUMP JUMPDEST PUSH1 0x0 DUP2 MLOAD SWAP1 POP SWAP2 SWAP1 POP JUMP JUMPDEST PUSH1 0x0 DUP3 DUP3 MSTORE PUSH1 0x20 DUP3 ADD SWAP1 POP SWAP3 SWAP2 POP POP JUMP JUMPDEST PUSH1 0x0 DUP2 SWAP1 POP SWAP3 SWAP2 POP POP JUMP JUMPDEST PUSH1 0x0 DUP3 DUP3 MSTORE PUSH1 0x20 DUP3 ADD SWAP1 POP SWAP3 SWAP2 POP POP JUMP JUMPDEST PUSH1 0x0 PUSH2 0x14BA DUP3 PUSH2 0x14E9 JUMP JUMPDEST SWAP1 POP SWAP2 SWAP1 POP JUMP JUMPDEST PUSH1 0x0 PUSH2 0x14CC DUP3 PUSH2 0x14E9 JUMP JUMPDEST SWAP1 POP SWAP2 SWAP1 POP JUMP JUMPDEST PUSH1 0x0 DUP2 ISZERO ISZERO SWAP1 POP SWAP2 SWAP1 POP JUMP JUMPDEST PUSH1 0x0 DUP2 SWAP1 POP SWAP2 SWAP1 POP JUMP JUMPDEST PUSH1 0x0 PUSH20 0xFFFFFFFFFFFFFFFFFFFFFFFFFFFFFFFFFFFFFFFF DUP3 AND SWAP1 POP SWAP2 SWAP1 POP JUMP JUMPDEST PUSH1 0x0 DUP2 SWAP1 POP SWAP2 SWAP1 POP JUMP JUMPDEST PUSH1 0x0 PUSH4 0xFFFFFFFF DUP3 AND SWAP1 POP SWAP2 SWAP1 POP JUMP JUMPDEST DUP3 DUP2 DUP4 CALLDATACOPY PUSH1 0x0 DUP4 DUP4 ADD MSTORE POP POP POP JUMP JUMPDEST PUSH1 0x0 JUMPDEST DUP4 DUP2 LT ISZERO PUSH2 0x1550 JUMPI DUP1 DUP3 ADD MLOAD DUP2 DUP5 ADD MSTORE PUSH1 0x20 DUP2 ADD SWAP1 POP PUSH2 0x1535 JUMP JUMPDEST DUP4 DUP2 GT ISZERO PUSH2 0x155F JUMPI PUSH1 0x0 DUP5 DUP5 ADD MSTORE JUMPDEST POP POP POP POP JUMP JUMPDEST PUSH1 0x0 PUSH2 0x1570 DUP3 PUSH2 0x1577 JUMP JUMPDEST SWAP1 POP SWAP2 SWAP1 POP JUMP JUMPDEST PUSH1 0x0 PUSH2 0x1582 DUP3 PUSH2 0x15A4 JUMP JUMPDEST SWAP1 POP SWAP2 SWAP1 POP JUMP JUMPDEST PUSH1 0x0 DUP2 SWAP1 POP SWAP2 SWAP1 POP JUMP JUMPDEST PUSH1 0x0 PUSH1 0x1F NOT PUSH1 0x1F DUP4 ADD AND SWAP1 POP SWAP2 SWAP1 POP JUMP JUMPDEST PUSH1 0x0 DUP2 PUSH1 0x60 SHL SWAP1 POP SWAP2 SWAP1 POP JUMP JUMPDEST PUSH2 0x15BA DUP2 PUSH2 0x14AF JUMP JUMPDEST DUP2 EQ PUSH2 0x15CE JUMPI PUSH1 0x0 DUP1 PUSH2 0x15CB PUSH2 0x9B4 JUMP JUMPDEST POP POP JUMPDEST POP JUMP JUMPDEST PUSH2 0x15DA DUP2 PUSH2 0x14DF JUMP JUMPDEST DUP2 EQ PUSH2 0x15EE JUMPI PUSH1 0x0 DUP1 PUSH2 0x15EB PUSH2 0x9B4 JUMP JUMPDEST POP POP JUMPDEST POP JUMP JUMPDEST PUSH2 0x15FA DUP2 PUSH2 0x1509 JUMP JUMPDEST DUP2 EQ PUSH2 0x160E JUMPI PUSH1 0x0 DUP1 PUSH2 0x160B PUSH2 0x9B4 JUMP JUMPDEST POP POP JUMPDEST POP JUMP JUMPDEST PUSH2 0x161A DUP2 PUSH2 0x1513 JUMP JUMPDEST DUP2 EQ PUSH2 0x162E JUMPI PUSH1 0x0 DUP1 PUSH2 0x162B PUSH2 0x9B4 JUMP JUMPDEST POP POP JUMPDEST POP JUMP "
    },
    "deployedBytecode": {
      "linkReferences": {},
      "object": "6080604052348015610019576000806100166109b4565b50505b50600436106100915760003560e01c806382e3702d1161006457806382e3702d14610139578063b1b1b20914610169578063cbd4ece914610199578063ecc70428146101b557610091565b806321d800ec1461009f5780633dbb202b146100cf578063461a4478146100eb5780636e296e451461011b575b60008061009c6109b4565b50505b6100b960048036036100b49190810190610fe2565b6101d3565b6040516100c691906112f7565b60405180910390f35b6100e960048036036100e49190810190610f69565b6101fa565b005b61010560048036036101009190810190611014565b6102cc565b6040516101129190611290565b60405180910390f35b6101236103ac565b6040516101309190611290565b60405180910390f35b610153600480360361014e9190810190610fe2565b6103d9565b60405161016091906112f7565b60405180910390f35b610183600480360361017e9190810190610fe2565b610400565b60405161019091906112f7565b60405180910390f35b6101b360048036036101ae9190810190610edc565b610427565b005b6101bd6106e0565b6040516101ca91906113b1565b60405180910390f35b6000602052806000526040600020600091506101ed610a22565b906101000a900460ff1681565b6060610219845a610209610a85565b856003610214610a22565b6106ed565b905061022b818363ffffffff1661078d565b600160036000828261023b610a22565b019250508190610249610ae2565b5050506001600260008380519060200120815260200190815260200160002060006101000a81610277610a22565b8160ff0219169083151502179061028c610ae2565b5050507f0ee9ffdb2334d78de97ffb066b23a352a4d35180cefb36589d663fbb1eb6f326816040516102be919061132d565b60405180910390a150505050565b600060056000906102db610a22565b906101000a900473ffffffffffffffffffffffffffffffffffffffff1673ffffffffffffffffffffffffffffffffffffffff1663bf40fac1836040518263ffffffff1660e01b8152600401610330919061134f565b6020604051808303818680610343610b47565b158015610358576000806103556109b4565b50505b505a610362610baa565b5050505050158015610381573d6000803e3d600061037e6109b4565b50505b505050506040513d601f19601f820116820180604052506103a59190810190610eaa565b9050919050565b60046000906103b9610a22565b906101000a900473ffffffffffffffffffffffffffffffffffffffff1681565b6002602052806000526040600020600091506103f3610a22565b906101000a900460ff1681565b60016020528060005260406000206000915061041a610a22565b906101000a900460ff1681565b6001151561043361085f565b15151461047e576040517f08c379a000000000000000000000000000000000000000000000000000000000815260040161046c90611391565b6040518091039061047b6109b4565b50505b606061048c858585856106ed565b905060008180519060200120905060001515600160008381526020019081526020016000206000906104bc610a22565b906101000a900460ff16151514610511576040517f08c379a00000000000000000000000000000000000000000000000000000000081526004016104ff90611371565b6040518091039061050e6109b4565b50505b84600460006101000a81610523610a22565b8173ffffffffffffffffffffffffffffffffffffffff021916908373ffffffffffffffffffffffffffffffffffffffff1602179061055f610ae2565b50505060008673ffffffffffffffffffffffffffffffffffffffff16856040516105899190611240565b6000604051808303816000865a61059e610c61565b5050505050509150503d80600081146105d3576040519150601f19603f3d011682016040523d82523d6000602084013e6105d8565b606091505b5050905060011515811515141561065c57600180600084815260200190815260200160002060006101000a8161060c610a22565b8160ff02191690831515021790610621610ae2565b5050507f4641df4a962071e12719d8c8c8e5ac7fc4d97b927346a3d7a335b1f7517e133c826040516106539190611312565b60405180910390a15b6000835a610668610a85565b5a610671610d18565b60405160200161068393929190611257565b604051602081830303815290604052805190602001209050600160008083815260200190815260200160002060006101000a816106be610a22565b8160ff021916908315150217906106d3610ae2565b5050505050505050505050565b60036106ea610a22565b81565b60608484848460405160240161070694939291906112ab565b6040516020818303038152906040527fcbd4ece9000000000000000000000000000000000000000000000000000000007bffffffffffffffffffffffffffffffffffffffffffffffffffffffff19166020820180517bffffffffffffffffffffffffffffffffffffffffffffffffffffffff83818316178352505050509050949350505050565b6107cb6040518060400160405280601781526020017f4f564d5f4c32546f4c314d6573736167655061737365720000000000000000008152506102cc565b73ffffffffffffffffffffffffffffffffffffffff1663cafa81dc836040518263ffffffff1660e01b8152600401610803919061132d565b60006040518083038160008780610818610b47565b15801561082d5760008061082a6109b4565b50505b505a610837610c61565b505050505050158015610857573d6000803e3d60006108546109b4565b50505b505050505050565b600061089f6040518060400160405280601a81526020017f4f564d5f4c3143726f7373446f6d61696e4d657373656e6765720000000000008152506102cc565b73ffffffffffffffffffffffffffffffffffffffff166108f36040518060400160405280601381526020017f4f564d5f4c314d65737361676553656e646572000000000000000000000000008152506102cc565b73ffffffffffffffffffffffffffffffffffffffff1663d20341066040518163ffffffff1660e01b815260040160206040518083038160008780610935610b47565b15801561094a576000806109476109b4565b50505b505a610954610c61565b505050505050158015610974573d6000803e3d60006109716109b4565b50505b505050506040513d601f19601f820116820180604052506109989190810190610eaa565b73ffffffffffffffffffffffffffffffffffffffff1614905090565b632a2a7adb598160e01b8152600481016020815285602082015260005b868110156109ef5780860151816040840101526020810190506109d1565b506020828760640184336000905af158601d01573d60011458600c01573d6000803e3d621234565260ea61109c52505050565b6303daa959598160e01b8152836004820152602081602483336000905af158601d01573d60011458600c01573d6000803e3d621234565260ea61109c528051935060005b6040811015610a8057600081830152602081019050610a66565b505050565b6373509064598160e01b8152602081600483336000905af158601d01573d60011458600c01573d6000803e3d621234565260ea61109c528051935060005b6040811015610add57600081830152602081019050610ac3565b505050565b6322bd64c0598160e01b8152836004820152846024820152600081604483336000905af158601d01573d60011458600c01573d6000803e3d621234565260ea61109c5260005b6040811015610b4257600081830152602081019050610b28565b505050565b638435035b598160e01b8152836004820152602081602483336000905af158601d01573d60011458600c01573d6000803e3d621234565260ea61109c528051935060005b6040811015610ba557600081830152602081019050610b8b565b505050565b638540661f598160e01b8152836004820152846024820152606060448201528660648201526084810160005b88811015610bf1578088015181830152602081019050610bd6565b506060828960a40184336000905af158601d01573d60011458600c01573d6000803e3d621234565260ea61109c52815160408301513d6000853e8b8b82606087013350600060045af15059845b81811015610c555760008152602081019050610c3e565b50829c50505050505050565b6385979f76598160e01b8152836004820152846024820152606060448201528760648201526084810160005b89811015610ca8578089015181830152602081019050610c8d565b506060828a60a40184336000905af158601d01573d60011458600c01573d6000803e3d621234565260ea61109c52815160408301513d6000853e8c8c82606087013350600060045af15059845b81811015610d0c5760008152602081019050610cf5565b50829d50505050505050565b635a98c361598160e01b8152602081600483336000905af158601d01573d60011458600c01573d6000803e3d621234565260ea61109c528051935060005b6040811015610d7057600081830152602081019050610d56565b505050565b600081359050610d84816115b1565b92915050565b600081519050610d99816115b1565b92915050565b600081359050610dae816115d1565b92915050565b600082601f830112610dce57600080610dcb6109b4565b50505b8135610de1610ddc82611402565b6113cc565b91508082526020830160208301858383011115610e0657600080610e036109b4565b50505b610e11838284611523565b50505092915050565b600082601f830112610e3457600080610e316109b4565b50505b8135610e47610e4282611437565b6113cc565b91508082526020830160208301858383011115610e6c57600080610e696109b4565b50505b610e77838284611523565b50505092915050565b600081359050610e8f816115f1565b92915050565b600081359050610ea481611611565b92915050565b600060208284031215610ec557600080610ec26109b4565b50505b6000610ed384828501610d8a565b91505092915050565b60008060008060808587031215610efb57600080610ef86109b4565b50505b6000610f0987828801610d75565b9450506020610f1a87828801610d75565b935050604085013567ffffffffffffffff811115610f4057600080610f3d6109b4565b50505b610f4c87828801610db4565b9250506060610f5d87828801610e80565b91505092959194509250565b600080600060608486031215610f8757600080610f846109b4565b50505b6000610f9586828701610d75565b935050602084013567ffffffffffffffff811115610fbb57600080610fb86109b4565b50505b610fc786828701610db4565b9250506040610fd886828701610e95565b9150509250925092565b600060208284031215610ffd57600080610ffa6109b4565b50505b600061100b84828501610d9f565b91505092915050565b60006020828403121561102f5760008061102c6109b4565b50505b600082013567ffffffffffffffff8111156110525760008061104f6109b4565b50505b61105e84828501610e1a565b91505092915050565b611078611073826114c1565b611565565b82525050565b611087816114af565b82525050565b611096816114d3565b82525050565b6110a5816114df565b82525050565b60006110b68261146c565b6110c08185611482565b93506110d0818560208601611532565b6110d981611593565b840191505092915050565b60006110ef8261146c565b6110f98185611493565b9350611109818560208601611532565b80840191505092915050565b600061112082611477565b61112a818561149e565b935061113a818560208601611532565b61114381611593565b840191505092915050565b600061115b602b8361149e565b91507f50726f7669646564206d6573736167652068617320616c72656164792062656560008301527f6e2072656365697665642e0000000000000000000000000000000000000000006020830152604082019050919050565b60006111c160278361149e565b91507f50726f7669646564206d65737361676520636f756c64206e6f7420626520766560008301527f7269666965642e000000000000000000000000000000000000000000000000006020830152604082019050919050565b61122381611509565b82525050565b61123a61123582611509565b611589565b82525050565b600061124c82846110e4565b915081905092915050565b600061126382866110e4565b915061126f8285611067565b60148201915061127f8284611229565b602082019150819050949350505050565b60006020820190506112a5600083018461107e565b92915050565b60006080820190506112c0600083018761107e565b6112cd602083018661107e565b81810360408301526112df81856110ab565b90506112ee606083018461121a565b95945050505050565b600060208201905061130c600083018461108d565b92915050565b6000602082019050611327600083018461109c565b92915050565b6000602082019050818103600083015261134781846110ab565b905092915050565b600060208201905081810360008301526113698184611115565b905092915050565b6000602082019050818103600083015261138a8161114e565b9050919050565b600060208201905081810360008301526113aa816111b4565b9050919050565b60006020820190506113c6600083018461121a565b92915050565b6000604051905081810181811067ffffffffffffffff821117156113f8576000806113f56109b4565b50505b8060405250919050565b600067ffffffffffffffff8211156114225760008061141f6109b4565b50505b601f19601f8301169050602081019050919050565b600067ffffffffffffffff821115611457576000806114546109b4565b50505b601f19601f8301169050602081019050919050565b600081519050919050565b600081519050919050565b600082825260208201905092915050565b600081905092915050565b600082825260208201905092915050565b60006114ba826114e9565b9050919050565b60006114cc826114e9565b9050919050565b60008115159050919050565b6000819050919050565b600073ffffffffffffffffffffffffffffffffffffffff82169050919050565b6000819050919050565b600063ffffffff82169050919050565b82818337600083830152505050565b60005b83811015611550578082015181840152602081019050611535565b8381111561155f576000848401525b50505050565b600061157082611577565b9050919050565b6000611582826115a4565b9050919050565b6000819050919050565b6000601f19601f8301169050919050565b60008160601b9050919050565b6115ba816114af565b81146115ce576000806115cb6109b4565b50505b50565b6115da816114df565b81146115ee576000806115eb6109b4565b50505b50565b6115fa81611509565b811461160e5760008061160b6109b4565b50505b50565b61161a81611513565b811461162e5760008061162b6109b4565b50505b5056",
      "opcodes": "PUSH1 0x80 PUSH1 0x40 MSTORE CALLVALUE DUP1 ISZERO PUSH2 0x19 JUMPI PUSH1 0x0 DUP1 PUSH2 0x16 PUSH2 0x9B4 JUMP JUMPDEST POP POP JUMPDEST POP PUSH1 0x4 CALLDATASIZE LT PUSH2 0x91 JUMPI PUSH1 0x0 CALLDATALOAD PUSH1 0xE0 SHR DUP1 PUSH4 0x82E3702D GT PUSH2 0x64 JUMPI DUP1 PUSH4 0x82E3702D EQ PUSH2 0x139 JUMPI DUP1 PUSH4 0xB1B1B209 EQ PUSH2 0x169 JUMPI DUP1 PUSH4 0xCBD4ECE9 EQ PUSH2 0x199 JUMPI DUP1 PUSH4 0xECC70428 EQ PUSH2 0x1B5 JUMPI PUSH2 0x91 JUMP JUMPDEST DUP1 PUSH4 0x21D800EC EQ PUSH2 0x9F JUMPI DUP1 PUSH4 0x3DBB202B EQ PUSH2 0xCF JUMPI DUP1 PUSH4 0x461A4478 EQ PUSH2 0xEB JUMPI DUP1 PUSH4 0x6E296E45 EQ PUSH2 0x11B JUMPI JUMPDEST PUSH1 0x0 DUP1 PUSH2 0x9C PUSH2 0x9B4 JUMP JUMPDEST POP POP JUMPDEST PUSH2 0xB9 PUSH1 0x4 DUP1 CALLDATASIZE SUB PUSH2 0xB4 SWAP2 SWAP1 DUP2 ADD SWAP1 PUSH2 0xFE2 JUMP JUMPDEST PUSH2 0x1D3 JUMP JUMPDEST PUSH1 0x40 MLOAD PUSH2 0xC6 SWAP2 SWAP1 PUSH2 0x12F7 JUMP JUMPDEST PUSH1 0x40 MLOAD DUP1 SWAP2 SUB SWAP1 RETURN JUMPDEST PUSH2 0xE9 PUSH1 0x4 DUP1 CALLDATASIZE SUB PUSH2 0xE4 SWAP2 SWAP1 DUP2 ADD SWAP1 PUSH2 0xF69 JUMP JUMPDEST PUSH2 0x1FA JUMP JUMPDEST STOP JUMPDEST PUSH2 0x105 PUSH1 0x4 DUP1 CALLDATASIZE SUB PUSH2 0x100 SWAP2 SWAP1 DUP2 ADD SWAP1 PUSH2 0x1014 JUMP JUMPDEST PUSH2 0x2CC JUMP JUMPDEST PUSH1 0x40 MLOAD PUSH2 0x112 SWAP2 SWAP1 PUSH2 0x1290 JUMP JUMPDEST PUSH1 0x40 MLOAD DUP1 SWAP2 SUB SWAP1 RETURN JUMPDEST PUSH2 0x123 PUSH2 0x3AC JUMP JUMPDEST PUSH1 0x40 MLOAD PUSH2 0x130 SWAP2 SWAP1 PUSH2 0x1290 JUMP JUMPDEST PUSH1 0x40 MLOAD DUP1 SWAP2 SUB SWAP1 RETURN JUMPDEST PUSH2 0x153 PUSH1 0x4 DUP1 CALLDATASIZE SUB PUSH2 0x14E SWAP2 SWAP1 DUP2 ADD SWAP1 PUSH2 0xFE2 JUMP JUMPDEST PUSH2 0x3D9 JUMP JUMPDEST PUSH1 0x40 MLOAD PUSH2 0x160 SWAP2 SWAP1 PUSH2 0x12F7 JUMP JUMPDEST PUSH1 0x40 MLOAD DUP1 SWAP2 SUB SWAP1 RETURN JUMPDEST PUSH2 0x183 PUSH1 0x4 DUP1 CALLDATASIZE SUB PUSH2 0x17E SWAP2 SWAP1 DUP2 ADD SWAP1 PUSH2 0xFE2 JUMP JUMPDEST PUSH2 0x400 JUMP JUMPDEST PUSH1 0x40 MLOAD PUSH2 0x190 SWAP2 SWAP1 PUSH2 0x12F7 JUMP JUMPDEST PUSH1 0x40 MLOAD DUP1 SWAP2 SUB SWAP1 RETURN JUMPDEST PUSH2 0x1B3 PUSH1 0x4 DUP1 CALLDATASIZE SUB PUSH2 0x1AE SWAP2 SWAP1 DUP2 ADD SWAP1 PUSH2 0xEDC JUMP JUMPDEST PUSH2 0x427 JUMP JUMPDEST STOP JUMPDEST PUSH2 0x1BD PUSH2 0x6E0 JUMP JUMPDEST PUSH1 0x40 MLOAD PUSH2 0x1CA SWAP2 SWAP1 PUSH2 0x13B1 JUMP JUMPDEST PUSH1 0x40 MLOAD DUP1 SWAP2 SUB SWAP1 RETURN JUMPDEST PUSH1 0x0 PUSH1 0x20 MSTORE DUP1 PUSH1 0x0 MSTORE PUSH1 0x40 PUSH1 0x0 KECCAK256 PUSH1 0x0 SWAP2 POP PUSH2 0x1ED PUSH2 0xA22 JUMP JUMPDEST SWAP1 PUSH2 0x100 EXP SWAP1 DIV PUSH1 0xFF AND DUP2 JUMP JUMPDEST PUSH1 0x60 PUSH2 0x219 DUP5 GAS PUSH2 0x209 PUSH2 0xA85 JUMP JUMPDEST DUP6 PUSH1 0x3 PUSH2 0x214 PUSH2 0xA22 JUMP JUMPDEST PUSH2 0x6ED JUMP JUMPDEST SWAP1 POP PUSH2 0x22B DUP2 DUP4 PUSH4 0xFFFFFFFF AND PUSH2 0x78D JUMP JUMPDEST PUSH1 0x1 PUSH1 0x3 PUSH1 0x0 DUP3 DUP3 PUSH2 0x23B PUSH2 0xA22 JUMP JUMPDEST ADD SWAP3 POP POP DUP2 SWAP1 PUSH2 0x249 PUSH2 0xAE2 JUMP JUMPDEST POP POP POP PUSH1 0x1 PUSH1 0x2 PUSH1 0x0 DUP4 DUP1 MLOAD SWAP1 PUSH1 0x20 ADD KECCAK256 DUP2 MSTORE PUSH1 0x20 ADD SWAP1 DUP2 MSTORE PUSH1 0x20 ADD PUSH1 0x0 KECCAK256 PUSH1 0x0 PUSH2 0x100 EXP DUP2 PUSH2 0x277 PUSH2 0xA22 JUMP JUMPDEST DUP2 PUSH1 0xFF MUL NOT AND SWAP1 DUP4 ISZERO ISZERO MUL OR SWAP1 PUSH2 0x28C PUSH2 0xAE2 JUMP JUMPDEST POP POP POP PUSH32 0xEE9FFDB2334D78DE97FFB066B23A352A4D35180CEFB36589D663FBB1EB6F326 DUP2 PUSH1 0x40 MLOAD PUSH2 0x2BE SWAP2 SWAP1 PUSH2 0x132D JUMP JUMPDEST PUSH1 0x40 MLOAD DUP1 SWAP2 SUB SWAP1 LOG1 POP POP POP POP JUMP JUMPDEST PUSH1 0x0 PUSH1 0x5 PUSH1 0x0 SWAP1 PUSH2 0x2DB PUSH2 0xA22 JUMP JUMPDEST SWAP1 PUSH2 0x100 EXP SWAP1 DIV PUSH20 0xFFFFFFFFFFFFFFFFFFFFFFFFFFFFFFFFFFFFFFFF AND PUSH20 0xFFFFFFFFFFFFFFFFFFFFFFFFFFFFFFFFFFFFFFFF AND PUSH4 0xBF40FAC1 DUP4 PUSH1 0x40 MLOAD DUP3 PUSH4 0xFFFFFFFF AND PUSH1 0xE0 SHL DUP2 MSTORE PUSH1 0x4 ADD PUSH2 0x330 SWAP2 SWAP1 PUSH2 0x134F JUMP JUMPDEST PUSH1 0x20 PUSH1 0x40 MLOAD DUP1 DUP4 SUB DUP2 DUP7 DUP1 PUSH2 0x343 PUSH2 0xB47 JUMP JUMPDEST ISZERO DUP1 ISZERO PUSH2 0x358 JUMPI PUSH1 0x0 DUP1 PUSH2 0x355 PUSH2 0x9B4 JUMP JUMPDEST POP POP JUMPDEST POP GAS PUSH2 0x362 PUSH2 0xBAA JUMP JUMPDEST POP POP POP POP POP ISZERO DUP1 ISZERO PUSH2 0x381 JUMPI RETURNDATASIZE PUSH1 0x0 DUP1 RETURNDATACOPY RETURNDATASIZE PUSH1 0x0 PUSH2 0x37E PUSH2 0x9B4 JUMP JUMPDEST POP POP JUMPDEST POP POP POP POP PUSH1 0x40 MLOAD RETURNDATASIZE PUSH1 0x1F NOT PUSH1 0x1F DUP3 ADD AND DUP3 ADD DUP1 PUSH1 0x40 MSTORE POP PUSH2 0x3A5 SWAP2 SWAP1 DUP2 ADD SWAP1 PUSH2 0xEAA JUMP JUMPDEST SWAP1 POP SWAP2 SWAP1 POP JUMP JUMPDEST PUSH1 0x4 PUSH1 0x0 SWAP1 PUSH2 0x3B9 PUSH2 0xA22 JUMP JUMPDEST SWAP1 PUSH2 0x100 EXP SWAP1 DIV PUSH20 0xFFFFFFFFFFFFFFFFFFFFFFFFFFFFFFFFFFFFFFFF AND DUP2 JUMP JUMPDEST PUSH1 0x2 PUSH1 0x20 MSTORE DUP1 PUSH1 0x0 MSTORE PUSH1 0x40 PUSH1 0x0 KECCAK256 PUSH1 0x0 SWAP2 POP PUSH2 0x3F3 PUSH2 0xA22 JUMP JUMPDEST SWAP1 PUSH2 0x100 EXP SWAP1 DIV PUSH1 0xFF AND DUP2 JUMP JUMPDEST PUSH1 0x1 PUSH1 0x20 MSTORE DUP1 PUSH1 0x0 MSTORE PUSH1 0x40 PUSH1 0x0 KECCAK256 PUSH1 0x0 SWAP2 POP PUSH2 0x41A PUSH2 0xA22 JUMP JUMPDEST SWAP1 PUSH2 0x100 EXP SWAP1 DIV PUSH1 0xFF AND DUP2 JUMP JUMPDEST PUSH1 0x1 ISZERO ISZERO PUSH2 0x433 PUSH2 0x85F JUMP JUMPDEST ISZERO ISZERO EQ PUSH2 0x47E JUMPI PUSH1 0x40 MLOAD PUSH32 0x8C379A000000000000000000000000000000000000000000000000000000000 DUP2 MSTORE PUSH1 0x4 ADD PUSH2 0x46C SWAP1 PUSH2 0x1391 JUMP JUMPDEST PUSH1 0x40 MLOAD DUP1 SWAP2 SUB SWAP1 PUSH2 0x47B PUSH2 0x9B4 JUMP JUMPDEST POP POP JUMPDEST PUSH1 0x60 PUSH2 0x48C DUP6 DUP6 DUP6 DUP6 PUSH2 0x6ED JUMP JUMPDEST SWAP1 POP PUSH1 0x0 DUP2 DUP1 MLOAD SWAP1 PUSH1 0x20 ADD KECCAK256 SWAP1 POP PUSH1 0x0 ISZERO ISZERO PUSH1 0x1 PUSH1 0x0 DUP4 DUP2 MSTORE PUSH1 0x20 ADD SWAP1 DUP2 MSTORE PUSH1 0x20 ADD PUSH1 0x0 KECCAK256 PUSH1 0x0 SWAP1 PUSH2 0x4BC PUSH2 0xA22 JUMP JUMPDEST SWAP1 PUSH2 0x100 EXP SWAP1 DIV PUSH1 0xFF AND ISZERO ISZERO EQ PUSH2 0x511 JUMPI PUSH1 0x40 MLOAD PUSH32 0x8C379A000000000000000000000000000000000000000000000000000000000 DUP2 MSTORE PUSH1 0x4 ADD PUSH2 0x4FF SWAP1 PUSH2 0x1371 JUMP JUMPDEST PUSH1 0x40 MLOAD DUP1 SWAP2 SUB SWAP1 PUSH2 0x50E PUSH2 0x9B4 JUMP JUMPDEST POP POP JUMPDEST DUP5 PUSH1 0x4 PUSH1 0x0 PUSH2 0x100 EXP DUP2 PUSH2 0x523 PUSH2 0xA22 JUMP JUMPDEST DUP2 PUSH20 0xFFFFFFFFFFFFFFFFFFFFFFFFFFFFFFFFFFFFFFFF MUL NOT AND SWAP1 DUP4 PUSH20 0xFFFFFFFFFFFFFFFFFFFFFFFFFFFFFFFFFFFFFFFF AND MUL OR SWAP1 PUSH2 0x55F PUSH2 0xAE2 JUMP JUMPDEST POP POP POP PUSH1 0x0 DUP7 PUSH20 0xFFFFFFFFFFFFFFFFFFFFFFFFFFFFFFFFFFFFFFFF AND DUP6 PUSH1 0x40 MLOAD PUSH2 0x589 SWAP2 SWAP1 PUSH2 0x1240 JUMP JUMPDEST PUSH1 0x0 PUSH1 0x40 MLOAD DUP1 DUP4 SUB DUP2 PUSH1 0x0 DUP7 GAS PUSH2 0x59E PUSH2 0xC61 JUMP JUMPDEST POP POP POP POP POP POP SWAP2 POP POP RETURNDATASIZE DUP1 PUSH1 0x0 DUP2 EQ PUSH2 0x5D3 JUMPI PUSH1 0x40 MLOAD SWAP2 POP PUSH1 0x1F NOT PUSH1 0x3F RETURNDATASIZE ADD AND DUP3 ADD PUSH1 0x40 MSTORE RETURNDATASIZE DUP3 MSTORE RETURNDATASIZE PUSH1 0x0 PUSH1 0x20 DUP5 ADD RETURNDATACOPY PUSH2 0x5D8 JUMP JUMPDEST PUSH1 0x60 SWAP2 POP JUMPDEST POP POP SWAP1 POP PUSH1 0x1 ISZERO ISZERO DUP2 ISZERO ISZERO EQ ISZERO PUSH2 0x65C JUMPI PUSH1 0x1 DUP1 PUSH1 0x0 DUP5 DUP2 MSTORE PUSH1 0x20 ADD SWAP1 DUP2 MSTORE PUSH1 0x20 ADD PUSH1 0x0 KECCAK256 PUSH1 0x0 PUSH2 0x100 EXP DUP2 PUSH2 0x60C PUSH2 0xA22 JUMP JUMPDEST DUP2 PUSH1 0xFF MUL NOT AND SWAP1 DUP4 ISZERO ISZERO MUL OR SWAP1 PUSH2 0x621 PUSH2 0xAE2 JUMP JUMPDEST POP POP POP PUSH32 0x4641DF4A962071E12719D8C8C8E5AC7FC4D97B927346A3D7A335B1F7517E133C DUP3 PUSH1 0x40 MLOAD PUSH2 0x653 SWAP2 SWAP1 PUSH2 0x1312 JUMP JUMPDEST PUSH1 0x40 MLOAD DUP1 SWAP2 SUB SWAP1 LOG1 JUMPDEST PUSH1 0x0 DUP4 GAS PUSH2 0x668 PUSH2 0xA85 JUMP JUMPDEST GAS PUSH2 0x671 PUSH2 0xD18 JUMP JUMPDEST PUSH1 0x40 MLOAD PUSH1 0x20 ADD PUSH2 0x683 SWAP4 SWAP3 SWAP2 SWAP1 PUSH2 0x1257 JUMP JUMPDEST PUSH1 0x40 MLOAD PUSH1 0x20 DUP2 DUP4 SUB SUB DUP2 MSTORE SWAP1 PUSH1 0x40 MSTORE DUP1 MLOAD SWAP1 PUSH1 0x20 ADD KECCAK256 SWAP1 POP PUSH1 0x1 PUSH1 0x0 DUP1 DUP4 DUP2 MSTORE PUSH1 0x20 ADD SWAP1 DUP2 MSTORE PUSH1 0x20 ADD PUSH1 0x0 KECCAK256 PUSH1 0x0 PUSH2 0x100 EXP DUP2 PUSH2 0x6BE PUSH2 0xA22 JUMP JUMPDEST DUP2 PUSH1 0xFF MUL NOT AND SWAP1 DUP4 ISZERO ISZERO MUL OR SWAP1 PUSH2 0x6D3 PUSH2 0xAE2 JUMP JUMPDEST POP POP POP POP POP POP POP POP POP POP POP JUMP JUMPDEST PUSH1 0x3 PUSH2 0x6EA PUSH2 0xA22 JUMP JUMPDEST DUP2 JUMP JUMPDEST PUSH1 0x60 DUP5 DUP5 DUP5 DUP5 PUSH1 0x40 MLOAD PUSH1 0x24 ADD PUSH2 0x706 SWAP5 SWAP4 SWAP3 SWAP2 SWAP1 PUSH2 0x12AB JUMP JUMPDEST PUSH1 0x40 MLOAD PUSH1 0x20 DUP2 DUP4 SUB SUB DUP2 MSTORE SWAP1 PUSH1 0x40 MSTORE PUSH32 0xCBD4ECE900000000000000000000000000000000000000000000000000000000 PUSH28 0xFFFFFFFFFFFFFFFFFFFFFFFFFFFFFFFFFFFFFFFFFFFFFFFFFFFFFFFF NOT AND PUSH1 0x20 DUP3 ADD DUP1 MLOAD PUSH28 0xFFFFFFFFFFFFFFFFFFFFFFFFFFFFFFFFFFFFFFFFFFFFFFFFFFFFFFFF DUP4 DUP2 DUP4 AND OR DUP4 MSTORE POP POP POP POP SWAP1 POP SWAP5 SWAP4 POP POP POP POP JUMP JUMPDEST PUSH2 0x7CB PUSH1 0x40 MLOAD DUP1 PUSH1 0x40 ADD PUSH1 0x40 MSTORE DUP1 PUSH1 0x17 DUP2 MSTORE PUSH1 0x20 ADD PUSH32 0x4F564D5F4C32546F4C314D657373616765506173736572000000000000000000 DUP2 MSTORE POP PUSH2 0x2CC JUMP JUMPDEST PUSH20 0xFFFFFFFFFFFFFFFFFFFFFFFFFFFFFFFFFFFFFFFF AND PUSH4 0xCAFA81DC DUP4 PUSH1 0x40 MLOAD DUP3 PUSH4 0xFFFFFFFF AND PUSH1 0xE0 SHL DUP2 MSTORE PUSH1 0x4 ADD PUSH2 0x803 SWAP2 SWAP1 PUSH2 0x132D JUMP JUMPDEST PUSH1 0x0 PUSH1 0x40 MLOAD DUP1 DUP4 SUB DUP2 PUSH1 0x0 DUP8 DUP1 PUSH2 0x818 PUSH2 0xB47 JUMP JUMPDEST ISZERO DUP1 ISZERO PUSH2 0x82D JUMPI PUSH1 0x0 DUP1 PUSH2 0x82A PUSH2 0x9B4 JUMP JUMPDEST POP POP JUMPDEST POP GAS PUSH2 0x837 PUSH2 0xC61 JUMP JUMPDEST POP POP POP POP POP POP ISZERO DUP1 ISZERO PUSH2 0x857 JUMPI RETURNDATASIZE PUSH1 0x0 DUP1 RETURNDATACOPY RETURNDATASIZE PUSH1 0x0 PUSH2 0x854 PUSH2 0x9B4 JUMP JUMPDEST POP POP JUMPDEST POP POP POP POP POP POP JUMP JUMPDEST PUSH1 0x0 PUSH2 0x89F PUSH1 0x40 MLOAD DUP1 PUSH1 0x40 ADD PUSH1 0x40 MSTORE DUP1 PUSH1 0x1A DUP2 MSTORE PUSH1 0x20 ADD PUSH32 0x4F564D5F4C3143726F7373446F6D61696E4D657373656E676572000000000000 DUP2 MSTORE POP PUSH2 0x2CC JUMP JUMPDEST PUSH20 0xFFFFFFFFFFFFFFFFFFFFFFFFFFFFFFFFFFFFFFFF AND PUSH2 0x8F3 PUSH1 0x40 MLOAD DUP1 PUSH1 0x40 ADD PUSH1 0x40 MSTORE DUP1 PUSH1 0x13 DUP2 MSTORE PUSH1 0x20 ADD PUSH32 0x4F564D5F4C314D65737361676553656E64657200000000000000000000000000 DUP2 MSTORE POP PUSH2 0x2CC JUMP JUMPDEST PUSH20 0xFFFFFFFFFFFFFFFFFFFFFFFFFFFFFFFFFFFFFFFF AND PUSH4 0xD2034106 PUSH1 0x40 MLOAD DUP2 PUSH4 0xFFFFFFFF AND PUSH1 0xE0 SHL DUP2 MSTORE PUSH1 0x4 ADD PUSH1 0x20 PUSH1 0x40 MLOAD DUP1 DUP4 SUB DUP2 PUSH1 0x0 DUP8 DUP1 PUSH2 0x935 PUSH2 0xB47 JUMP JUMPDEST ISZERO DUP1 ISZERO PUSH2 0x94A JUMPI PUSH1 0x0 DUP1 PUSH2 0x947 PUSH2 0x9B4 JUMP JUMPDEST POP POP JUMPDEST POP GAS PUSH2 0x954 PUSH2 0xC61 JUMP JUMPDEST POP POP POP POP POP POP ISZERO DUP1 ISZERO PUSH2 0x974 JUMPI RETURNDATASIZE PUSH1 0x0 DUP1 RETURNDATACOPY RETURNDATASIZE PUSH1 0x0 PUSH2 0x971 PUSH2 0x9B4 JUMP JUMPDEST POP POP JUMPDEST POP POP POP POP PUSH1 0x40 MLOAD RETURNDATASIZE PUSH1 0x1F NOT PUSH1 0x1F DUP3 ADD AND DUP3 ADD DUP1 PUSH1 0x40 MSTORE POP PUSH2 0x998 SWAP2 SWAP1 DUP2 ADD SWAP1 PUSH2 0xEAA JUMP JUMPDEST PUSH20 0xFFFFFFFFFFFFFFFFFFFFFFFFFFFFFFFFFFFFFFFF AND EQ SWAP1 POP SWAP1 JUMP JUMPDEST PUSH4 0x2A2A7ADB MSIZE DUP2 PUSH1 0xE0 SHL DUP2 MSTORE PUSH1 0x4 DUP2 ADD PUSH1 0x20 DUP2 MSTORE DUP6 PUSH1 0x20 DUP3 ADD MSTORE PUSH1 0x0 JUMPDEST DUP7 DUP2 LT ISZERO PUSH2 0x9EF JUMPI DUP1 DUP7 ADD MLOAD DUP2 PUSH1 0x40 DUP5 ADD ADD MSTORE PUSH1 0x20 DUP2 ADD SWAP1 POP PUSH2 0x9D1 JUMP JUMPDEST POP PUSH1 0x20 DUP3 DUP8 PUSH1 0x64 ADD DUP5 CALLER PUSH1 0x0 SWAP1 GAS CALL PC PUSH1 0x1D ADD JUMPI RETURNDATASIZE PUSH1 0x1 EQ PC PUSH1 0xC ADD JUMPI RETURNDATASIZE PUSH1 0x0 DUP1 RETURNDATACOPY RETURNDATASIZE PUSH3 0x123456 MSTORE PUSH1 0xEA PUSH2 0x109C MSTORE POP POP POP JUMP JUMPDEST PUSH4 0x3DAA959 MSIZE DUP2 PUSH1 0xE0 SHL DUP2 MSTORE DUP4 PUSH1 0x4 DUP3 ADD MSTORE PUSH1 0x20 DUP2 PUSH1 0x24 DUP4 CALLER PUSH1 0x0 SWAP1 GAS CALL PC PUSH1 0x1D ADD JUMPI RETURNDATASIZE PUSH1 0x1 EQ PC PUSH1 0xC ADD JUMPI RETURNDATASIZE PUSH1 0x0 DUP1 RETURNDATACOPY RETURNDATASIZE PUSH3 0x123456 MSTORE PUSH1 0xEA PUSH2 0x109C MSTORE DUP1 MLOAD SWAP4 POP PUSH1 0x0 JUMPDEST PUSH1 0x40 DUP2 LT ISZERO PUSH2 0xA80 JUMPI PUSH1 0x0 DUP2 DUP4 ADD MSTORE PUSH1 0x20 DUP2 ADD SWAP1 POP PUSH2 0xA66 JUMP JUMPDEST POP POP POP JUMP JUMPDEST PUSH4 0x73509064 MSIZE DUP2 PUSH1 0xE0 SHL DUP2 MSTORE PUSH1 0x20 DUP2 PUSH1 0x4 DUP4 CALLER PUSH1 0x0 SWAP1 GAS CALL PC PUSH1 0x1D ADD JUMPI RETURNDATASIZE PUSH1 0x1 EQ PC PUSH1 0xC ADD JUMPI RETURNDATASIZE PUSH1 0x0 DUP1 RETURNDATACOPY RETURNDATASIZE PUSH3 0x123456 MSTORE PUSH1 0xEA PUSH2 0x109C MSTORE DUP1 MLOAD SWAP4 POP PUSH1 0x0 JUMPDEST PUSH1 0x40 DUP2 LT ISZERO PUSH2 0xADD JUMPI PUSH1 0x0 DUP2 DUP4 ADD MSTORE PUSH1 0x20 DUP2 ADD SWAP1 POP PUSH2 0xAC3 JUMP JUMPDEST POP POP POP JUMP JUMPDEST PUSH4 0x22BD64C0 MSIZE DUP2 PUSH1 0xE0 SHL DUP2 MSTORE DUP4 PUSH1 0x4 DUP3 ADD MSTORE DUP5 PUSH1 0x24 DUP3 ADD MSTORE PUSH1 0x0 DUP2 PUSH1 0x44 DUP4 CALLER PUSH1 0x0 SWAP1 GAS CALL PC PUSH1 0x1D ADD JUMPI RETURNDATASIZE PUSH1 0x1 EQ PC PUSH1 0xC ADD JUMPI RETURNDATASIZE PUSH1 0x0 DUP1 RETURNDATACOPY RETURNDATASIZE PUSH3 0x123456 MSTORE PUSH1 0xEA PUSH2 0x109C MSTORE PUSH1 0x0 JUMPDEST PUSH1 0x40 DUP2 LT ISZERO PUSH2 0xB42 JUMPI PUSH1 0x0 DUP2 DUP4 ADD MSTORE PUSH1 0x20 DUP2 ADD SWAP1 POP PUSH2 0xB28 JUMP JUMPDEST POP POP POP JUMP JUMPDEST PUSH4 0x8435035B MSIZE DUP2 PUSH1 0xE0 SHL DUP2 MSTORE DUP4 PUSH1 0x4 DUP3 ADD MSTORE PUSH1 0x20 DUP2 PUSH1 0x24 DUP4 CALLER PUSH1 0x0 SWAP1 GAS CALL PC PUSH1 0x1D ADD JUMPI RETURNDATASIZE PUSH1 0x1 EQ PC PUSH1 0xC ADD JUMPI RETURNDATASIZE PUSH1 0x0 DUP1 RETURNDATACOPY RETURNDATASIZE PUSH3 0x123456 MSTORE PUSH1 0xEA PUSH2 0x109C MSTORE DUP1 MLOAD SWAP4 POP PUSH1 0x0 JUMPDEST PUSH1 0x40 DUP2 LT ISZERO PUSH2 0xBA5 JUMPI PUSH1 0x0 DUP2 DUP4 ADD MSTORE PUSH1 0x20 DUP2 ADD SWAP1 POP PUSH2 0xB8B JUMP JUMPDEST POP POP POP JUMP JUMPDEST PUSH4 0x8540661F MSIZE DUP2 PUSH1 0xE0 SHL DUP2 MSTORE DUP4 PUSH1 0x4 DUP3 ADD MSTORE DUP5 PUSH1 0x24 DUP3 ADD MSTORE PUSH1 0x60 PUSH1 0x44 DUP3 ADD MSTORE DUP7 PUSH1 0x64 DUP3 ADD MSTORE PUSH1 0x84 DUP2 ADD PUSH1 0x0 JUMPDEST DUP9 DUP2 LT ISZERO PUSH2 0xBF1 JUMPI DUP1 DUP9 ADD MLOAD DUP2 DUP4 ADD MSTORE PUSH1 0x20 DUP2 ADD SWAP1 POP PUSH2 0xBD6 JUMP JUMPDEST POP PUSH1 0x60 DUP3 DUP10 PUSH1 0xA4 ADD DUP5 CALLER PUSH1 0x0 SWAP1 GAS CALL PC PUSH1 0x1D ADD JUMPI RETURNDATASIZE PUSH1 0x1 EQ PC PUSH1 0xC ADD JUMPI RETURNDATASIZE PUSH1 0x0 DUP1 RETURNDATACOPY RETURNDATASIZE PUSH3 0x123456 MSTORE PUSH1 0xEA PUSH2 0x109C MSTORE DUP2 MLOAD PUSH1 0x40 DUP4 ADD MLOAD RETURNDATASIZE PUSH1 0x0 DUP6 RETURNDATACOPY DUP12 DUP12 DUP3 PUSH1 0x60 DUP8 ADD CALLER POP PUSH1 0x0 PUSH1 0x4 GAS CALL POP MSIZE DUP5 JUMPDEST DUP2 DUP2 LT ISZERO PUSH2 0xC55 JUMPI PUSH1 0x0 DUP2 MSTORE PUSH1 0x20 DUP2 ADD SWAP1 POP PUSH2 0xC3E JUMP JUMPDEST POP DUP3 SWAP13 POP POP POP POP POP POP POP JUMP JUMPDEST PUSH4 0x85979F76 MSIZE DUP2 PUSH1 0xE0 SHL DUP2 MSTORE DUP4 PUSH1 0x4 DUP3 ADD MSTORE DUP5 PUSH1 0x24 DUP3 ADD MSTORE PUSH1 0x60 PUSH1 0x44 DUP3 ADD MSTORE DUP8 PUSH1 0x64 DUP3 ADD MSTORE PUSH1 0x84 DUP2 ADD PUSH1 0x0 JUMPDEST DUP10 DUP2 LT ISZERO PUSH2 0xCA8 JUMPI DUP1 DUP10 ADD MLOAD DUP2 DUP4 ADD MSTORE PUSH1 0x20 DUP2 ADD SWAP1 POP PUSH2 0xC8D JUMP JUMPDEST POP PUSH1 0x60 DUP3 DUP11 PUSH1 0xA4 ADD DUP5 CALLER PUSH1 0x0 SWAP1 GAS CALL PC PUSH1 0x1D ADD JUMPI RETURNDATASIZE PUSH1 0x1 EQ PC PUSH1 0xC ADD JUMPI RETURNDATASIZE PUSH1 0x0 DUP1 RETURNDATACOPY RETURNDATASIZE PUSH3 0x123456 MSTORE PUSH1 0xEA PUSH2 0x109C MSTORE DUP2 MLOAD PUSH1 0x40 DUP4 ADD MLOAD RETURNDATASIZE PUSH1 0x0 DUP6 RETURNDATACOPY DUP13 DUP13 DUP3 PUSH1 0x60 DUP8 ADD CALLER POP PUSH1 0x0 PUSH1 0x4 GAS CALL POP MSIZE DUP5 JUMPDEST DUP2 DUP2 LT ISZERO PUSH2 0xD0C JUMPI PUSH1 0x0 DUP2 MSTORE PUSH1 0x20 DUP2 ADD SWAP1 POP PUSH2 0xCF5 JUMP JUMPDEST POP DUP3 SWAP14 POP POP POP POP POP POP POP JUMP JUMPDEST PUSH4 0x5A98C361 MSIZE DUP2 PUSH1 0xE0 SHL DUP2 MSTORE PUSH1 0x20 DUP2 PUSH1 0x4 DUP4 CALLER PUSH1 0x0 SWAP1 GAS CALL PC PUSH1 0x1D ADD JUMPI RETURNDATASIZE PUSH1 0x1 EQ PC PUSH1 0xC ADD JUMPI RETURNDATASIZE PUSH1 0x0 DUP1 RETURNDATACOPY RETURNDATASIZE PUSH3 0x123456 MSTORE PUSH1 0xEA PUSH2 0x109C MSTORE DUP1 MLOAD SWAP4 POP PUSH1 0x0 JUMPDEST PUSH1 0x40 DUP2 LT ISZERO PUSH2 0xD70 JUMPI PUSH1 0x0 DUP2 DUP4 ADD MSTORE PUSH1 0x20 DUP2 ADD SWAP1 POP PUSH2 0xD56 JUMP JUMPDEST POP POP POP JUMP JUMPDEST PUSH1 0x0 DUP2 CALLDATALOAD SWAP1 POP PUSH2 0xD84 DUP2 PUSH2 0x15B1 JUMP JUMPDEST SWAP3 SWAP2 POP POP JUMP JUMPDEST PUSH1 0x0 DUP2 MLOAD SWAP1 POP PUSH2 0xD99 DUP2 PUSH2 0x15B1 JUMP JUMPDEST SWAP3 SWAP2 POP POP JUMP JUMPDEST PUSH1 0x0 DUP2 CALLDATALOAD SWAP1 POP PUSH2 0xDAE DUP2 PUSH2 0x15D1 JUMP JUMPDEST SWAP3 SWAP2 POP POP JUMP JUMPDEST PUSH1 0x0 DUP3 PUSH1 0x1F DUP4 ADD SLT PUSH2 0xDCE JUMPI PUSH1 0x0 DUP1 PUSH2 0xDCB PUSH2 0x9B4 JUMP JUMPDEST POP POP JUMPDEST DUP2 CALLDATALOAD PUSH2 0xDE1 PUSH2 0xDDC DUP3 PUSH2 0x1402 JUMP JUMPDEST PUSH2 0x13CC JUMP JUMPDEST SWAP2 POP DUP1 DUP3 MSTORE PUSH1 0x20 DUP4 ADD PUSH1 0x20 DUP4 ADD DUP6 DUP4 DUP4 ADD GT ISZERO PUSH2 0xE06 JUMPI PUSH1 0x0 DUP1 PUSH2 0xE03 PUSH2 0x9B4 JUMP JUMPDEST POP POP JUMPDEST PUSH2 0xE11 DUP4 DUP3 DUP5 PUSH2 0x1523 JUMP JUMPDEST POP POP POP SWAP3 SWAP2 POP POP JUMP JUMPDEST PUSH1 0x0 DUP3 PUSH1 0x1F DUP4 ADD SLT PUSH2 0xE34 JUMPI PUSH1 0x0 DUP1 PUSH2 0xE31 PUSH2 0x9B4 JUMP JUMPDEST POP POP JUMPDEST DUP2 CALLDATALOAD PUSH2 0xE47 PUSH2 0xE42 DUP3 PUSH2 0x1437 JUMP JUMPDEST PUSH2 0x13CC JUMP JUMPDEST SWAP2 POP DUP1 DUP3 MSTORE PUSH1 0x20 DUP4 ADD PUSH1 0x20 DUP4 ADD DUP6 DUP4 DUP4 ADD GT ISZERO PUSH2 0xE6C JUMPI PUSH1 0x0 DUP1 PUSH2 0xE69 PUSH2 0x9B4 JUMP JUMPDEST POP POP JUMPDEST PUSH2 0xE77 DUP4 DUP3 DUP5 PUSH2 0x1523 JUMP JUMPDEST POP POP POP SWAP3 SWAP2 POP POP JUMP JUMPDEST PUSH1 0x0 DUP2 CALLDATALOAD SWAP1 POP PUSH2 0xE8F DUP2 PUSH2 0x15F1 JUMP JUMPDEST SWAP3 SWAP2 POP POP JUMP JUMPDEST PUSH1 0x0 DUP2 CALLDATALOAD SWAP1 POP PUSH2 0xEA4 DUP2 PUSH2 0x1611 JUMP JUMPDEST SWAP3 SWAP2 POP POP JUMP JUMPDEST PUSH1 0x0 PUSH1 0x20 DUP3 DUP5 SUB SLT ISZERO PUSH2 0xEC5 JUMPI PUSH1 0x0 DUP1 PUSH2 0xEC2 PUSH2 0x9B4 JUMP JUMPDEST POP POP JUMPDEST PUSH1 0x0 PUSH2 0xED3 DUP5 DUP3 DUP6 ADD PUSH2 0xD8A JUMP JUMPDEST SWAP2 POP POP SWAP3 SWAP2 POP POP JUMP JUMPDEST PUSH1 0x0 DUP1 PUSH1 0x0 DUP1 PUSH1 0x80 DUP6 DUP8 SUB SLT ISZERO PUSH2 0xEFB JUMPI PUSH1 0x0 DUP1 PUSH2 0xEF8 PUSH2 0x9B4 JUMP JUMPDEST POP POP JUMPDEST PUSH1 0x0 PUSH2 0xF09 DUP8 DUP3 DUP9 ADD PUSH2 0xD75 JUMP JUMPDEST SWAP5 POP POP PUSH1 0x20 PUSH2 0xF1A DUP8 DUP3 DUP9 ADD PUSH2 0xD75 JUMP JUMPDEST SWAP4 POP POP PUSH1 0x40 DUP6 ADD CALLDATALOAD PUSH8 0xFFFFFFFFFFFFFFFF DUP2 GT ISZERO PUSH2 0xF40 JUMPI PUSH1 0x0 DUP1 PUSH2 0xF3D PUSH2 0x9B4 JUMP JUMPDEST POP POP JUMPDEST PUSH2 0xF4C DUP8 DUP3 DUP9 ADD PUSH2 0xDB4 JUMP JUMPDEST SWAP3 POP POP PUSH1 0x60 PUSH2 0xF5D DUP8 DUP3 DUP9 ADD PUSH2 0xE80 JUMP JUMPDEST SWAP2 POP POP SWAP3 SWAP6 SWAP2 SWAP5 POP SWAP3 POP JUMP JUMPDEST PUSH1 0x0 DUP1 PUSH1 0x0 PUSH1 0x60 DUP5 DUP7 SUB SLT ISZERO PUSH2 0xF87 JUMPI PUSH1 0x0 DUP1 PUSH2 0xF84 PUSH2 0x9B4 JUMP JUMPDEST POP POP JUMPDEST PUSH1 0x0 PUSH2 0xF95 DUP7 DUP3 DUP8 ADD PUSH2 0xD75 JUMP JUMPDEST SWAP4 POP POP PUSH1 0x20 DUP5 ADD CALLDATALOAD PUSH8 0xFFFFFFFFFFFFFFFF DUP2 GT ISZERO PUSH2 0xFBB JUMPI PUSH1 0x0 DUP1 PUSH2 0xFB8 PUSH2 0x9B4 JUMP JUMPDEST POP POP JUMPDEST PUSH2 0xFC7 DUP7 DUP3 DUP8 ADD PUSH2 0xDB4 JUMP JUMPDEST SWAP3 POP POP PUSH1 0x40 PUSH2 0xFD8 DUP7 DUP3 DUP8 ADD PUSH2 0xE95 JUMP JUMPDEST SWAP2 POP POP SWAP3 POP SWAP3 POP SWAP3 JUMP JUMPDEST PUSH1 0x0 PUSH1 0x20 DUP3 DUP5 SUB SLT ISZERO PUSH2 0xFFD JUMPI PUSH1 0x0 DUP1 PUSH2 0xFFA PUSH2 0x9B4 JUMP JUMPDEST POP POP JUMPDEST PUSH1 0x0 PUSH2 0x100B DUP5 DUP3 DUP6 ADD PUSH2 0xD9F JUMP JUMPDEST SWAP2 POP POP SWAP3 SWAP2 POP POP JUMP JUMPDEST PUSH1 0x0 PUSH1 0x20 DUP3 DUP5 SUB SLT ISZERO PUSH2 0x102F JUMPI PUSH1 0x0 DUP1 PUSH2 0x102C PUSH2 0x9B4 JUMP JUMPDEST POP POP JUMPDEST PUSH1 0x0 DUP3 ADD CALLDATALOAD PUSH8 0xFFFFFFFFFFFFFFFF DUP2 GT ISZERO PUSH2 0x1052 JUMPI PUSH1 0x0 DUP1 PUSH2 0x104F PUSH2 0x9B4 JUMP JUMPDEST POP POP JUMPDEST PUSH2 0x105E DUP5 DUP3 DUP6 ADD PUSH2 0xE1A JUMP JUMPDEST SWAP2 POP POP SWAP3 SWAP2 POP POP JUMP JUMPDEST PUSH2 0x1078 PUSH2 0x1073 DUP3 PUSH2 0x14C1 JUMP JUMPDEST PUSH2 0x1565 JUMP JUMPDEST DUP3 MSTORE POP POP JUMP JUMPDEST PUSH2 0x1087 DUP2 PUSH2 0x14AF JUMP JUMPDEST DUP3 MSTORE POP POP JUMP JUMPDEST PUSH2 0x1096 DUP2 PUSH2 0x14D3 JUMP JUMPDEST DUP3 MSTORE POP POP JUMP JUMPDEST PUSH2 0x10A5 DUP2 PUSH2 0x14DF JUMP JUMPDEST DUP3 MSTORE POP POP JUMP JUMPDEST PUSH1 0x0 PUSH2 0x10B6 DUP3 PUSH2 0x146C JUMP JUMPDEST PUSH2 0x10C0 DUP2 DUP6 PUSH2 0x1482 JUMP JUMPDEST SWAP4 POP PUSH2 0x10D0 DUP2 DUP6 PUSH1 0x20 DUP7 ADD PUSH2 0x1532 JUMP JUMPDEST PUSH2 0x10D9 DUP2 PUSH2 0x1593 JUMP JUMPDEST DUP5 ADD SWAP2 POP POP SWAP3 SWAP2 POP POP JUMP JUMPDEST PUSH1 0x0 PUSH2 0x10EF DUP3 PUSH2 0x146C JUMP JUMPDEST PUSH2 0x10F9 DUP2 DUP6 PUSH2 0x1493 JUMP JUMPDEST SWAP4 POP PUSH2 0x1109 DUP2 DUP6 PUSH1 0x20 DUP7 ADD PUSH2 0x1532 JUMP JUMPDEST DUP1 DUP5 ADD SWAP2 POP POP SWAP3 SWAP2 POP POP JUMP JUMPDEST PUSH1 0x0 PUSH2 0x1120 DUP3 PUSH2 0x1477 JUMP JUMPDEST PUSH2 0x112A DUP2 DUP6 PUSH2 0x149E JUMP JUMPDEST SWAP4 POP PUSH2 0x113A DUP2 DUP6 PUSH1 0x20 DUP7 ADD PUSH2 0x1532 JUMP JUMPDEST PUSH2 0x1143 DUP2 PUSH2 0x1593 JUMP JUMPDEST DUP5 ADD SWAP2 POP POP SWAP3 SWAP2 POP POP JUMP JUMPDEST PUSH1 0x0 PUSH2 0x115B PUSH1 0x2B DUP4 PUSH2 0x149E JUMP JUMPDEST SWAP2 POP PUSH32 0x50726F7669646564206D6573736167652068617320616C726561647920626565 PUSH1 0x0 DUP4 ADD MSTORE PUSH32 0x6E2072656365697665642E000000000000000000000000000000000000000000 PUSH1 0x20 DUP4 ADD MSTORE PUSH1 0x40 DUP3 ADD SWAP1 POP SWAP2 SWAP1 POP JUMP JUMPDEST PUSH1 0x0 PUSH2 0x11C1 PUSH1 0x27 DUP4 PUSH2 0x149E JUMP JUMPDEST SWAP2 POP PUSH32 0x50726F7669646564206D65737361676520636F756C64206E6F74206265207665 PUSH1 0x0 DUP4 ADD MSTORE PUSH32 0x7269666965642E00000000000000000000000000000000000000000000000000 PUSH1 0x20 DUP4 ADD MSTORE PUSH1 0x40 DUP3 ADD SWAP1 POP SWAP2 SWAP1 POP JUMP JUMPDEST PUSH2 0x1223 DUP2 PUSH2 0x1509 JUMP JUMPDEST DUP3 MSTORE POP POP JUMP JUMPDEST PUSH2 0x123A PUSH2 0x1235 DUP3 PUSH2 0x1509 JUMP JUMPDEST PUSH2 0x1589 JUMP JUMPDEST DUP3 MSTORE POP POP JUMP JUMPDEST PUSH1 0x0 PUSH2 0x124C DUP3 DUP5 PUSH2 0x10E4 JUMP JUMPDEST SWAP2 POP DUP2 SWAP1 POP SWAP3 SWAP2 POP POP JUMP JUMPDEST PUSH1 0x0 PUSH2 0x1263 DUP3 DUP7 PUSH2 0x10E4 JUMP JUMPDEST SWAP2 POP PUSH2 0x126F DUP3 DUP6 PUSH2 0x1067 JUMP JUMPDEST PUSH1 0x14 DUP3 ADD SWAP2 POP PUSH2 0x127F DUP3 DUP5 PUSH2 0x1229 JUMP JUMPDEST PUSH1 0x20 DUP3 ADD SWAP2 POP DUP2 SWAP1 POP SWAP5 SWAP4 POP POP POP POP JUMP JUMPDEST PUSH1 0x0 PUSH1 0x20 DUP3 ADD SWAP1 POP PUSH2 0x12A5 PUSH1 0x0 DUP4 ADD DUP5 PUSH2 0x107E JUMP JUMPDEST SWAP3 SWAP2 POP POP JUMP JUMPDEST PUSH1 0x0 PUSH1 0x80 DUP3 ADD SWAP1 POP PUSH2 0x12C0 PUSH1 0x0 DUP4 ADD DUP8 PUSH2 0x107E JUMP JUMPDEST PUSH2 0x12CD PUSH1 0x20 DUP4 ADD DUP7 PUSH2 0x107E JUMP JUMPDEST DUP2 DUP2 SUB PUSH1 0x40 DUP4 ADD MSTORE PUSH2 0x12DF DUP2 DUP6 PUSH2 0x10AB JUMP JUMPDEST SWAP1 POP PUSH2 0x12EE PUSH1 0x60 DUP4 ADD DUP5 PUSH2 0x121A JUMP JUMPDEST SWAP6 SWAP5 POP POP POP POP POP JUMP JUMPDEST PUSH1 0x0 PUSH1 0x20 DUP3 ADD SWAP1 POP PUSH2 0x130C PUSH1 0x0 DUP4 ADD DUP5 PUSH2 0x108D JUMP JUMPDEST SWAP3 SWAP2 POP POP JUMP JUMPDEST PUSH1 0x0 PUSH1 0x20 DUP3 ADD SWAP1 POP PUSH2 0x1327 PUSH1 0x0 DUP4 ADD DUP5 PUSH2 0x109C JUMP JUMPDEST SWAP3 SWAP2 POP POP JUMP JUMPDEST PUSH1 0x0 PUSH1 0x20 DUP3 ADD SWAP1 POP DUP2 DUP2 SUB PUSH1 0x0 DUP4 ADD MSTORE PUSH2 0x1347 DUP2 DUP5 PUSH2 0x10AB JUMP JUMPDEST SWAP1 POP SWAP3 SWAP2 POP POP JUMP JUMPDEST PUSH1 0x0 PUSH1 0x20 DUP3 ADD SWAP1 POP DUP2 DUP2 SUB PUSH1 0x0 DUP4 ADD MSTORE PUSH2 0x1369 DUP2 DUP5 PUSH2 0x1115 JUMP JUMPDEST SWAP1 POP SWAP3 SWAP2 POP POP JUMP JUMPDEST PUSH1 0x0 PUSH1 0x20 DUP3 ADD SWAP1 POP DUP2 DUP2 SUB PUSH1 0x0 DUP4 ADD MSTORE PUSH2 0x138A DUP2 PUSH2 0x114E JUMP JUMPDEST SWAP1 POP SWAP2 SWAP1 POP JUMP JUMPDEST PUSH1 0x0 PUSH1 0x20 DUP3 ADD SWAP1 POP DUP2 DUP2 SUB PUSH1 0x0 DUP4 ADD MSTORE PUSH2 0x13AA DUP2 PUSH2 0x11B4 JUMP JUMPDEST SWAP1 POP SWAP2 SWAP1 POP JUMP JUMPDEST PUSH1 0x0 PUSH1 0x20 DUP3 ADD SWAP1 POP PUSH2 0x13C6 PUSH1 0x0 DUP4 ADD DUP5 PUSH2 0x121A JUMP JUMPDEST SWAP3 SWAP2 POP POP JUMP JUMPDEST PUSH1 0x0 PUSH1 0x40 MLOAD SWAP1 POP DUP2 DUP2 ADD DUP2 DUP2 LT PUSH8 0xFFFFFFFFFFFFFFFF DUP3 GT OR ISZERO PUSH2 0x13F8 JUMPI PUSH1 0x0 DUP1 PUSH2 0x13F5 PUSH2 0x9B4 JUMP JUMPDEST POP POP JUMPDEST DUP1 PUSH1 0x40 MSTORE POP SWAP2 SWAP1 POP JUMP JUMPDEST PUSH1 0x0 PUSH8 0xFFFFFFFFFFFFFFFF DUP3 GT ISZERO PUSH2 0x1422 JUMPI PUSH1 0x0 DUP1 PUSH2 0x141F PUSH2 0x9B4 JUMP JUMPDEST POP POP JUMPDEST PUSH1 0x1F NOT PUSH1 0x1F DUP4 ADD AND SWAP1 POP PUSH1 0x20 DUP2 ADD SWAP1 POP SWAP2 SWAP1 POP JUMP JUMPDEST PUSH1 0x0 PUSH8 0xFFFFFFFFFFFFFFFF DUP3 GT ISZERO PUSH2 0x1457 JUMPI PUSH1 0x0 DUP1 PUSH2 0x1454 PUSH2 0x9B4 JUMP JUMPDEST POP POP JUMPDEST PUSH1 0x1F NOT PUSH1 0x1F DUP4 ADD AND SWAP1 POP PUSH1 0x20 DUP2 ADD SWAP1 POP SWAP2 SWAP1 POP JUMP JUMPDEST PUSH1 0x0 DUP2 MLOAD SWAP1 POP SWAP2 SWAP1 POP JUMP JUMPDEST PUSH1 0x0 DUP2 MLOAD SWAP1 POP SWAP2 SWAP1 POP JUMP JUMPDEST PUSH1 0x0 DUP3 DUP3 MSTORE PUSH1 0x20 DUP3 ADD SWAP1 POP SWAP3 SWAP2 POP POP JUMP JUMPDEST PUSH1 0x0 DUP2 SWAP1 POP SWAP3 SWAP2 POP POP JUMP JUMPDEST PUSH1 0x0 DUP3 DUP3 MSTORE PUSH1 0x20 DUP3 ADD SWAP1 POP SWAP3 SWAP2 POP POP JUMP JUMPDEST PUSH1 0x0 PUSH2 0x14BA DUP3 PUSH2 0x14E9 JUMP JUMPDEST SWAP1 POP SWAP2 SWAP1 POP JUMP JUMPDEST PUSH1 0x0 PUSH2 0x14CC DUP3 PUSH2 0x14E9 JUMP JUMPDEST SWAP1 POP SWAP2 SWAP1 POP JUMP JUMPDEST PUSH1 0x0 DUP2 ISZERO ISZERO SWAP1 POP SWAP2 SWAP1 POP JUMP JUMPDEST PUSH1 0x0 DUP2 SWAP1 POP SWAP2 SWAP1 POP JUMP JUMPDEST PUSH1 0x0 PUSH20 0xFFFFFFFFFFFFFFFFFFFFFFFFFFFFFFFFFFFFFFFF DUP3 AND SWAP1 POP SWAP2 SWAP1 POP JUMP JUMPDEST PUSH1 0x0 DUP2 SWAP1 POP SWAP2 SWAP1 POP JUMP JUMPDEST PUSH1 0x0 PUSH4 0xFFFFFFFF DUP3 AND SWAP1 POP SWAP2 SWAP1 POP JUMP JUMPDEST DUP3 DUP2 DUP4 CALLDATACOPY PUSH1 0x0 DUP4 DUP4 ADD MSTORE POP POP POP JUMP JUMPDEST PUSH1 0x0 JUMPDEST DUP4 DUP2 LT ISZERO PUSH2 0x1550 JUMPI DUP1 DUP3 ADD MLOAD DUP2 DUP5 ADD MSTORE PUSH1 0x20 DUP2 ADD SWAP1 POP PUSH2 0x1535 JUMP JUMPDEST DUP4 DUP2 GT ISZERO PUSH2 0x155F JUMPI PUSH1 0x0 DUP5 DUP5 ADD MSTORE JUMPDEST POP POP POP POP JUMP JUMPDEST PUSH1 0x0 PUSH2 0x1570 DUP3 PUSH2 0x1577 JUMP JUMPDEST SWAP1 POP SWAP2 SWAP1 POP JUMP JUMPDEST PUSH1 0x0 PUSH2 0x1582 DUP3 PUSH2 0x15A4 JUMP JUMPDEST SWAP1 POP SWAP2 SWAP1 POP JUMP JUMPDEST PUSH1 0x0 DUP2 SWAP1 POP SWAP2 SWAP1 POP JUMP JUMPDEST PUSH1 0x0 PUSH1 0x1F NOT PUSH1 0x1F DUP4 ADD AND SWAP1 POP SWAP2 SWAP1 POP JUMP JUMPDEST PUSH1 0x0 DUP2 PUSH1 0x60 SHL SWAP1 POP SWAP2 SWAP1 POP JUMP JUMPDEST PUSH2 0x15BA DUP2 PUSH2 0x14AF JUMP JUMPDEST DUP2 EQ PUSH2 0x15CE JUMPI PUSH1 0x0 DUP1 PUSH2 0x15CB PUSH2 0x9B4 JUMP JUMPDEST POP POP JUMPDEST POP JUMP JUMPDEST PUSH2 0x15DA DUP2 PUSH2 0x14DF JUMP JUMPDEST DUP2 EQ PUSH2 0x15EE JUMPI PUSH1 0x0 DUP1 PUSH2 0x15EB PUSH2 0x9B4 JUMP JUMPDEST POP POP JUMPDEST POP JUMP JUMPDEST PUSH2 0x15FA DUP2 PUSH2 0x1509 JUMP JUMPDEST DUP2 EQ PUSH2 0x160E JUMPI PUSH1 0x0 DUP1 PUSH2 0x160B PUSH2 0x9B4 JUMP JUMPDEST POP POP JUMPDEST POP JUMP JUMPDEST PUSH2 0x161A DUP2 PUSH2 0x1513 JUMP JUMPDEST DUP2 EQ PUSH2 0x162E JUMPI PUSH1 0x0 DUP1 PUSH2 0x162B PUSH2 0x9B4 JUMP JUMPDEST POP POP JUMPDEST POP JUMP "
    }
  },
  "interface": [
    {
      "inputs": [
        {
          "internalType": "address",
          "name": "_libAddressManager",
          "type": "address"
        }
      ],
      "payable": false,
      "stateMutability": "nonpayable",
      "type": "constructor"
    },
    {
      "anonymous": false,
      "inputs": [
        {
          "indexed": false,
          "internalType": "bytes32",
          "name": "msgHash",
          "type": "bytes32"
        }
      ],
      "name": "RelayedMessage",
      "type": "event"
    },
    {
      "anonymous": false,
      "inputs": [
        {
          "indexed": false,
          "internalType": "bytes",
          "name": "message",
          "type": "bytes"
        }
      ],
      "name": "SentMessage",
      "type": "event"
    },
    {
      "constant": true,
      "inputs": [],
      "name": "messageNonce",
      "outputs": [
        {
          "internalType": "uint256",
          "name": "",
          "type": "uint256"
        }
      ],
      "payable": false,
      "stateMutability": "view",
      "type": "function"
    },
    {
      "constant": false,
      "inputs": [
        {
          "internalType": "address",
          "name": "_target",
          "type": "address"
        },
        {
          "internalType": "address",
          "name": "_sender",
          "type": "address"
        },
        {
          "internalType": "bytes",
          "name": "_message",
          "type": "bytes"
        },
        {
          "internalType": "uint256",
          "name": "_messageNonce",
          "type": "uint256"
        }
      ],
      "name": "relayMessage",
      "outputs": [],
      "payable": false,
      "stateMutability": "nonpayable",
      "type": "function"
    },
    {
      "constant": true,
      "inputs": [
        {
          "internalType": "bytes32",
          "name": "",
          "type": "bytes32"
        }
      ],
      "name": "relayedMessages",
      "outputs": [
        {
          "internalType": "bool",
          "name": "",
          "type": "bool"
        }
      ],
      "payable": false,
      "stateMutability": "view",
      "type": "function"
    },
    {
      "constant": true,
      "inputs": [
        {
          "internalType": "string",
          "name": "_name",
          "type": "string"
        }
      ],
      "name": "resolve",
      "outputs": [
        {
          "internalType": "address",
          "name": "_contract",
          "type": "address"
        }
      ],
      "payable": false,
      "stateMutability": "view",
      "type": "function"
    },
    {
      "constant": false,
      "inputs": [
        {
          "internalType": "address",
          "name": "_target",
          "type": "address"
        },
        {
          "internalType": "bytes",
          "name": "_message",
          "type": "bytes"
        },
        {
          "internalType": "uint32",
          "name": "_gasLimit",
          "type": "uint32"
        }
      ],
      "name": "sendMessage",
      "outputs": [],
      "payable": false,
      "stateMutability": "nonpayable",
      "type": "function"
    },
    {
      "constant": true,
      "inputs": [
        {
          "internalType": "bytes32",
          "name": "",
          "type": "bytes32"
        }
      ],
      "name": "sentMessages",
      "outputs": [
        {
          "internalType": "bool",
          "name": "",
          "type": "bool"
        }
      ],
      "payable": false,
      "stateMutability": "view",
      "type": "function"
    },
    {
      "constant": true,
      "inputs": [
        {
          "internalType": "bytes32",
          "name": "",
          "type": "bytes32"
        }
      ],
      "name": "successfulMessages",
      "outputs": [
        {
          "internalType": "bool",
          "name": "",
          "type": "bool"
        }
      ],
      "payable": false,
      "stateMutability": "view",
      "type": "function"
    },
    {
      "constant": true,
      "inputs": [],
      "name": "xDomainMessageSender",
      "outputs": [
        {
          "internalType": "address",
          "name": "",
          "type": "address"
        }
      ],
      "payable": false,
      "stateMutability": "view",
      "type": "function"
    }
  ],
  "bytecode": "60806040523480156200001c5760008062000019620000a0565b50505b50604051620018c4380380620018c48339818101604052620000429190810190620001f3565b8080600560006101000a816200005762000110565b8173ffffffffffffffffffffffffffffffffffffffff021916908373ffffffffffffffffffffffffffffffffffffffff160217906200009562000175565b505050505062000283565b632a2a7adb598160e01b8152600481016020815285602082015260005b86811015620000dd578086015181604084010152602081019050620000bd565b506020828760640184336000905af158600e01573d6000803e3d6000fd5b3d6001141558600a015760016000f35b505050565b6303daa959598160e01b8152836004820152602081602483336000905af158600e01573d6000803e3d6000fd5b3d6001141558600a015760016000f35b8051935060005b6040811015620001705760008183015260208101905062000154565b505050565b6322bd64c0598160e01b8152836004820152846024820152600081604483336000905af158600e01573d6000803e3d6000fd5b3d6001141558600a015760016000f35b60005b6040811015620001d757600081830152602081019050620001bb565b505050565b600081519050620001ed816200025e565b92915050565b60006020828403121562000211576000806200020e620000a0565b50505b60006200022184828501620001dc565b91505092915050565b600062000237826200023e565b9050919050565b600073ffffffffffffffffffffffffffffffffffffffff82169050919050565b62000269816200022a565b811462000280576000806200027d620000a0565b50505b50565b61163180620002936000396000f3fe6080604052348015610019576000806100166109b4565b50505b50600436106100915760003560e01c806382e3702d1161006457806382e3702d14610139578063b1b1b20914610169578063cbd4ece914610199578063ecc70428146101b557610091565b806321d800ec1461009f5780633dbb202b146100cf578063461a4478146100eb5780636e296e451461011b575b60008061009c6109b4565b50505b6100b960048036036100b49190810190610fe2565b6101d3565b6040516100c691906112f7565b60405180910390f35b6100e960048036036100e49190810190610f69565b6101fa565b005b61010560048036036101009190810190611014565b6102cc565b6040516101129190611290565b60405180910390f35b6101236103ac565b6040516101309190611290565b60405180910390f35b610153600480360361014e9190810190610fe2565b6103d9565b60405161016091906112f7565b60405180910390f35b610183600480360361017e9190810190610fe2565b610400565b60405161019091906112f7565b60405180910390f35b6101b360048036036101ae9190810190610edc565b610427565b005b6101bd6106e0565b6040516101ca91906113b1565b60405180910390f35b6000602052806000526040600020600091506101ed610a22565b906101000a900460ff1681565b6060610219845a610209610a85565b856003610214610a22565b6106ed565b905061022b818363ffffffff1661078d565b600160036000828261023b610a22565b019250508190610249610ae2565b5050506001600260008380519060200120815260200190815260200160002060006101000a81610277610a22565b8160ff0219169083151502179061028c610ae2565b5050507f0ee9ffdb2334d78de97ffb066b23a352a4d35180cefb36589d663fbb1eb6f326816040516102be919061132d565b60405180910390a150505050565b600060056000906102db610a22565b906101000a900473ffffffffffffffffffffffffffffffffffffffff1673ffffffffffffffffffffffffffffffffffffffff1663bf40fac1836040518263ffffffff1660e01b8152600401610330919061134f565b6020604051808303818680610343610b47565b158015610358576000806103556109b4565b50505b505a610362610baa565b5050505050158015610381573d6000803e3d600061037e6109b4565b50505b505050506040513d601f19601f820116820180604052506103a59190810190610eaa565b9050919050565b60046000906103b9610a22565b906101000a900473ffffffffffffffffffffffffffffffffffffffff1681565b6002602052806000526040600020600091506103f3610a22565b906101000a900460ff1681565b60016020528060005260406000206000915061041a610a22565b906101000a900460ff1681565b6001151561043361085f565b15151461047e576040517f08c379a000000000000000000000000000000000000000000000000000000000815260040161046c90611391565b6040518091039061047b6109b4565b50505b606061048c858585856106ed565b905060008180519060200120905060001515600160008381526020019081526020016000206000906104bc610a22565b906101000a900460ff16151514610511576040517f08c379a00000000000000000000000000000000000000000000000000000000081526004016104ff90611371565b6040518091039061050e6109b4565b50505b84600460006101000a81610523610a22565b8173ffffffffffffffffffffffffffffffffffffffff021916908373ffffffffffffffffffffffffffffffffffffffff1602179061055f610ae2565b50505060008673ffffffffffffffffffffffffffffffffffffffff16856040516105899190611240565b6000604051808303816000865a61059e610c61565b5050505050509150503d80600081146105d3576040519150601f19603f3d011682016040523d82523d6000602084013e6105d8565b606091505b5050905060011515811515141561065c57600180600084815260200190815260200160002060006101000a8161060c610a22565b8160ff02191690831515021790610621610ae2565b5050507f4641df4a962071e12719d8c8c8e5ac7fc4d97b927346a3d7a335b1f7517e133c826040516106539190611312565b60405180910390a15b6000835a610668610a85565b5a610671610d18565b60405160200161068393929190611257565b604051602081830303815290604052805190602001209050600160008083815260200190815260200160002060006101000a816106be610a22565b8160ff021916908315150217906106d3610ae2565b5050505050505050505050565b60036106ea610a22565b81565b60608484848460405160240161070694939291906112ab565b6040516020818303038152906040527fcbd4ece9000000000000000000000000000000000000000000000000000000007bffffffffffffffffffffffffffffffffffffffffffffffffffffffff19166020820180517bffffffffffffffffffffffffffffffffffffffffffffffffffffffff83818316178352505050509050949350505050565b6107cb6040518060400160405280601781526020017f4f564d5f4c32546f4c314d6573736167655061737365720000000000000000008152506102cc565b73ffffffffffffffffffffffffffffffffffffffff1663cafa81dc836040518263ffffffff1660e01b8152600401610803919061132d565b60006040518083038160008780610818610b47565b15801561082d5760008061082a6109b4565b50505b505a610837610c61565b505050505050158015610857573d6000803e3d60006108546109b4565b50505b505050505050565b600061089f6040518060400160405280601a81526020017f4f564d5f4c3143726f7373446f6d61696e4d657373656e6765720000000000008152506102cc565b73ffffffffffffffffffffffffffffffffffffffff166108f36040518060400160405280601381526020017f4f564d5f4c314d65737361676553656e646572000000000000000000000000008152506102cc565b73ffffffffffffffffffffffffffffffffffffffff1663d20341066040518163ffffffff1660e01b815260040160206040518083038160008780610935610b47565b15801561094a576000806109476109b4565b50505b505a610954610c61565b505050505050158015610974573d6000803e3d60006109716109b4565b50505b505050506040513d601f19601f820116820180604052506109989190810190610eaa565b73ffffffffffffffffffffffffffffffffffffffff1614905090565b632a2a7adb598160e01b8152600481016020815285602082015260005b868110156109ef5780860151816040840101526020810190506109d1565b506020828760640184336000905af158600e01573d6000803e3d6000fd5b3d6001141558600a015760016000f35b505050565b6303daa959598160e01b8152836004820152602081602483336000905af158600e01573d6000803e3d6000fd5b3d6001141558600a015760016000f35b8051935060005b6040811015610a8057600081830152602081019050610a66565b505050565b6373509064598160e01b8152602081600483336000905af158600e01573d6000803e3d6000fd5b3d6001141558600a015760016000f35b8051935060005b6040811015610add57600081830152602081019050610ac3565b505050565b6322bd64c0598160e01b8152836004820152846024820152600081604483336000905af158600e01573d6000803e3d6000fd5b3d6001141558600a015760016000f35b60005b6040811015610b4257600081830152602081019050610b28565b505050565b638435035b598160e01b8152836004820152602081602483336000905af158600e01573d6000803e3d6000fd5b3d6001141558600a015760016000f35b8051935060005b6040811015610ba557600081830152602081019050610b8b565b505050565b638540661f598160e01b8152836004820152846024820152606060448201528660648201526084810160005b88811015610bf1578088015181830152602081019050610bd6565b506060828960a40184336000905af158600e01573d6000803e3d6000fd5b3d6001141558600a015760016000f35b815160408301513d6000853e8b8b82606087013350600060045af15059845b81811015610c555760008152602081019050610c3e565b50829c50505050505050565b6385979f76598160e01b8152836004820152846024820152606060448201528760648201526084810160005b89811015610ca8578089015181830152602081019050610c8d565b506060828a60a40184336000905af158600e01573d6000803e3d6000fd5b3d6001141558600a015760016000f35b815160408301513d6000853e8c8c82606087013350600060045af15059845b81811015610d0c5760008152602081019050610cf5565b50829d50505050505050565b635a98c361598160e01b8152602081600483336000905af158600e01573d6000803e3d6000fd5b3d6001141558600a015760016000f35b8051935060005b6040811015610d7057600081830152602081019050610d56565b505050565b600081359050610d84816115b1565b92915050565b600081519050610d99816115b1565b92915050565b600081359050610dae816115d1565b92915050565b600082601f830112610dce57600080610dcb6109b4565b50505b8135610de1610ddc82611402565b6113cc565b91508082526020830160208301858383011115610e0657600080610e036109b4565b50505b610e11838284611523565b50505092915050565b600082601f830112610e3457600080610e316109b4565b50505b8135610e47610e4282611437565b6113cc565b91508082526020830160208301858383011115610e6c57600080610e696109b4565b50505b610e77838284611523565b50505092915050565b600081359050610e8f816115f1565b92915050565b600081359050610ea481611611565b92915050565b600060208284031215610ec557600080610ec26109b4565b50505b6000610ed384828501610d8a565b91505092915050565b60008060008060808587031215610efb57600080610ef86109b4565b50505b6000610f0987828801610d75565b9450506020610f1a87828801610d75565b935050604085013567ffffffffffffffff811115610f4057600080610f3d6109b4565b50505b610f4c87828801610db4565b9250506060610f5d87828801610e80565b91505092959194509250565b600080600060608486031215610f8757600080610f846109b4565b50505b6000610f9586828701610d75565b935050602084013567ffffffffffffffff811115610fbb57600080610fb86109b4565b50505b610fc786828701610db4565b9250506040610fd886828701610e95565b9150509250925092565b600060208284031215610ffd57600080610ffa6109b4565b50505b600061100b84828501610d9f565b91505092915050565b60006020828403121561102f5760008061102c6109b4565b50505b600082013567ffffffffffffffff8111156110525760008061104f6109b4565b50505b61105e84828501610e1a565b91505092915050565b611078611073826114c1565b611565565b82525050565b611087816114af565b82525050565b611096816114d3565b82525050565b6110a5816114df565b82525050565b60006110b68261146c565b6110c08185611482565b93506110d0818560208601611532565b6110d981611593565b840191505092915050565b60006110ef8261146c565b6110f98185611493565b9350611109818560208601611532565b80840191505092915050565b600061112082611477565b61112a818561149e565b935061113a818560208601611532565b61114381611593565b840191505092915050565b600061115b602b8361149e565b91507f50726f7669646564206d6573736167652068617320616c72656164792062656560008301527f6e2072656365697665642e0000000000000000000000000000000000000000006020830152604082019050919050565b60006111c160278361149e565b91507f50726f7669646564206d65737361676520636f756c64206e6f7420626520766560008301527f7269666965642e000000000000000000000000000000000000000000000000006020830152604082019050919050565b61122381611509565b82525050565b61123a61123582611509565b611589565b82525050565b600061124c82846110e4565b915081905092915050565b600061126382866110e4565b915061126f8285611067565b60148201915061127f8284611229565b602082019150819050949350505050565b60006020820190506112a5600083018461107e565b92915050565b60006080820190506112c0600083018761107e565b6112cd602083018661107e565b81810360408301526112df81856110ab565b90506112ee606083018461121a565b95945050505050565b600060208201905061130c600083018461108d565b92915050565b6000602082019050611327600083018461109c565b92915050565b6000602082019050818103600083015261134781846110ab565b905092915050565b600060208201905081810360008301526113698184611115565b905092915050565b6000602082019050818103600083015261138a8161114e565b9050919050565b600060208201905081810360008301526113aa816111b4565b9050919050565b60006020820190506113c6600083018461121a565b92915050565b6000604051905081810181811067ffffffffffffffff821117156113f8576000806113f56109b4565b50505b8060405250919050565b600067ffffffffffffffff8211156114225760008061141f6109b4565b50505b601f19601f8301169050602081019050919050565b600067ffffffffffffffff821115611457576000806114546109b4565b50505b601f19601f8301169050602081019050919050565b600081519050919050565b600081519050919050565b600082825260208201905092915050565b600081905092915050565b600082825260208201905092915050565b60006114ba826114e9565b9050919050565b60006114cc826114e9565b9050919050565b60008115159050919050565b6000819050919050565b600073ffffffffffffffffffffffffffffffffffffffff82169050919050565b6000819050919050565b600063ffffffff82169050919050565b82818337600083830152505050565b60005b83811015611550578082015181840152602081019050611535565b8381111561155f576000848401525b50505050565b600061157082611577565b9050919050565b6000611582826115a4565b9050919050565b6000819050919050565b6000601f19601f8301169050919050565b60008160601b9050919050565b6115ba816114af565b81146115ce576000806115cb6109b4565b50505b50565b6115da816114df565b81146115ee576000806115eb6109b4565b50505b50565b6115fa81611509565b811461160e5760008061160b6109b4565b50505b50565b61161a81611513565b811461162e5760008061162b6109b4565b50505b5056"
}